:020000040800F2
:1000000028080020CD0100086D070008C906000877
:1000100069070008FD030008B10C0008000000009B
:100020000000000000000000000000000D090008B2
:10003000AD05000800000000F5070008210A0008CF
:10004000E7010008E7010008E7010008E7010008F0
:10005000E7010008E7010008E7010008E7010008E0
:10006000E7010008E7010008E7010008E7010008D0
:10007000E7010008E7010008E7010008E7010008C0
:10008000E7010008E7010008E7010008E7010008B0
:10009000E7010008E7010008E7010008E7010008A0
:1000A000E7010008E7010008E7010008E701000890
:1000B000E7010008E7010008E7010008E701000880
:1000C000E7010008E7010008E7010008E701000870
:1000D000E7010008850A0008E7010008E7010008B9
:1000E000E7010008E7010008E7010008E701000850
:1000F000E7010008E7010008E7010008E701000840
:10010000E7010008E7010008E7010008E70100082F
:10011000E7010008E7010008E7010008E70100081F
:10012000E7010008E7010008E7010008E70100080F
:1001300000F002F800F03AF80AA090E8000C8244BF
:100140008344AAF10107DA4501D100F02FF8AFF29C
:10015000090EBAE80F0013F0010F18BFFB1A43F0A5
:10016000010318478C0D0000AC0D0000103A24BFAD
:1001700078C878C1FAD8520724BF30C830C144BF0C
:1001800004680C607047000000230024002500264E
:10019000103A28BF78C1FBD8520728BF30C148BFEA
:1001A0000B6070471FB51FBD10B510BD00F0F3F810
:1001B0001146FFF7F7FF00F0A1FD00F011F903B4BD
:1001C000FFF7F2FF03BC00F075FD0000094880470F
:1001D00009480047FEE7FEE7FEE7FEE7FEE7FEE729
:1001E000FEE7FEE7FEE7FEE704480549054A064B41
:1001F00070470000250A000831010008280200208D
:100200002808002028040020280400207047032A22
:1002100040F2308010F0030C00F0158011F8013B23
:10022000BCF1020F624498BF11F801CB00F8013B0A
:1002300038BF11F8013BA2F1040298BF00F801CBCE
:1002400038BF00F8013B11F0030300F04B80083A7F
:10025000C0F0088051F8043B083A51F804CBA0E8FC
:100260000810F5E7121D5CBF51F8043B40F8043B51
:10027000AFF30080D20724BF11F8013B11F801CB86
:1002800048BF11F8012B24BF00F8013B00F801CB57
:1002900048BF00F8012B70474FF000020429C0F05E
:1002A000128010F0030C00F05180CCF1040CBCF172
:1002B000020F18BF00F8012BA8BF20F8022BA1EBFA
:1002C0000C0100F043B85FEAC17C24BF00F8012BA9
:1002D00000F8012B48BF00F8012B704770477047AA
:1002E0007047704710B5203AC0F00B80B1E8185045
:1002F000203AA0E81850B1E81850A0E81850BFF410
:10030000F5AF5FEA027C24BFB1E81850A0E81850AE
:1003100044BF18C918C0BDE810405FEA827C24BF02
:1003200051F8043B40F8043B08BF7047D20728BF90
:1003300031F8023B48BF11F8012B28BF20F8023BDF
:1003400048BF00F8012B70474FF0000200B513467C
:1003500094469646203922BFA0E80C50A0E80C50E5
:10036000B1F12001BFF4F7AF090728BFA0E80C5096
:1003700048BF0CC05DF804EB890028BF40F8042B8F
:1003800008BF704748BF20F8022B11F0804F18BFFC
:1003900000F8012B7047754600F02CF8AE460500BA
:1003A0006946534620F00700854618B020B5FFF790
:1003B0001BFFBDE820404FF000064FF000074FF054
:1003C00000084FF0000B21F00701AC46ACE8C00973
:1003D000ACE8C009ACE8C009ACE8C0098D4670477C
:1003E00010B50446AFF300802046BDE81040FFF78B
:1003F000E6BE000000487047C401002000BFFEE7D1
:1004000021B1026842F00102026004E002684FF686
:10041000FE731A400260704701684FF6FE72114089
:1004200001600021016041608160C1604B498842E8
:1004300008D14A490839496841F00F01474A083A4A
:1004400051608AE045491431884208D1434908394E
:10045000496841F0F001414A083A51607DE03F4966
:100460002831884208D13D490839496841F4706112
:100470003A4A083A516070E038493C31884208D124
:1004800036490839496841F47041344A083A5160A4
:1004900063E032495031884208D13049083949680F
:1004A00041F470212D4A083A516056E02B496431DD
:1004B000884208D129490839496841F47001274A1E
:1004C000083A516049E025497831884208D12349EA
:1004D0000839496841F07061204A083A51603CE0AF
:1004E0001F49884206D1011F096841F00F01021F10
:1004F000116032E01A491431884208D11849091FA5
:10050000096841F0F001164A121F116025E01449F4
:100510002831884208D11249091F096841F47061E5
:100520000F4A121F116018E00D493C31884208D172
:100530000B49091F096841F47041094A121F1160F3
:100540000BE007495031884207D10549091F096866
:1005500041F47021024A121F1160704708000240E6
:10056000080402400146486880B2704710B5002276
:10057000026847F6F0739A430C6A8B6823430C6950
:1005800023434C6923438C692343CC6923434C6A3E
:1005900023438C6A23431A430260CB6843600B6891
:1005A00083604B68C36010BD4160704770472DE9A0
:1005B000F0410246002500260020002300240027E9
:1005C00091F803C00CF00F0591F803C00CF0100C6B
:1005D000BCF1000F03D091F802C04CEA050591F878
:1005E00000C0BCF1000F31D0146800202BE04FF0A8
:1005F000010C0CFA00F3B1F800C00CEA03069E42AD
:1006000020D183004FF00F0C0CFA03F7BC4305FA1E
:1006100003FC4CEA040491F803C0BCF1280F06D196
:100620004FF0010C0CFA00FCC2F814C00AE091F87B
:1006300003C0BCF1480F05D14FF0010C0CFA00FCCF
:10064000C2F810C0401C0828D1D31460B1F800C013
:10065000BCF1FF0F34DD546800202EE000F1080CDF
:100660004FF0010808FA0CF3B1F800C00CEA0306D9
:100670009E4221D183004FF00F0C0CFA03F7BC43CC
:1006800005FA03FC4CEA040491F803C0BCF1280FFE
:1006900005D100F1080C08FA0CF8C2F8148091F8A2
:1006A00003C0BCF1480F07D100F1080C4FF001085E
:1006B00008FA0CF8C2F81080401C0828CED3546009
:1006C000BDE8F0810161704700BFFEE710B500F0A2
:1006D00025F800F005F84FF4E13000F01BFB10BDE9
:1006E00008B50121442000F097F81820ADF800006B
:1006F00048208DF8030069460648FFF758FF01209F
:10070000ADF8000028208DF8030069460248FFF785
:100710004EFF08BD001801400008014008B5012146
:10072000482000F079F82020ADF8000010208DF866
:10073000030003208DF8020069460948FFF737FFE0
:1007400020210748FFF7BEFF2020ADF800006946D2
:100750000448FFF72CFF20210248FFF7B3FF08BD34
:10076000000C01400018014000BFFEE77047000088
:1007700070B5002100230F22C47804B3154C2468FF
:1007800004F4E064C4F5E064210AC1F10403CA4042
:10079000447804FA03F184781440214309010E4C93
:1007A0000678A155047804F01F050124AC400578B3
:1007B0006D11AD0005F1E025C5F8004109E00478B0
:1007C00004F01F050124AC40044D0678761145F86D
:1007D000264070BD0CED00E000E400E080E100E0A8
:1007E00002490143024A1160704700000000FA0507
:1007F0000CED00E07047000029B1064A526902433F
:10080000044B5A6104E0034A52698243014B5A6126
:10081000704700000010024029B1064A9269024365
:10082000044B9A6104E0034A92698243014B9A6146
:10083000704700000010024030B500210022002463
:1008400000232D4D6D6805F00C0121B1042905D060
:10085000082923D105E0294D056022E0274D0560D8
:100860001FE0254D6D6805F47012234D6D6805F489
:100870008034022505EB92421CB9214D5543056099
:100880000BE01D4D6D6805F400351DB11C4D554341
:10089000056002E0194D5543056002E0174D056003
:1008A00000BF00BF144D6D6805F0F0010909154D3A
:1008B0006B5C0568DD4045600F4D6D6805F4E061D7
:1008C000090A104D6B5C4568DD4085600A4D6D6816
:1008D00005F46051C90A0B4D6B5C4568DD40C5608D
:1008E000054D6D6805F44041890B074D6B5CC5688B
:1008F000B5FBF3F5056130BD0010024000127A002F
:1009000000093D002000002030000020704710B595
:1009100000F002F810BD00000CB50020019000901E
:100920003348006840F480303149086000BF3048E7
:10093000006800F4003000900198401C019000987D
:1009400018B90198B0F5A06FF1D12948006800F4FA
:10095000003010B10120009001E0002000900098CC
:10096000012843D12348006840F010002149086065
:100970000846006820F0030008600846006840F060
:10098000020008601A4840681949486008464068F3
:1009900048600846406840F4806048600846406807
:1009A00020F47C1048600846406840F4E810486035
:1009B0000846006840F08070086000BF0C4800687E
:1009C00000F000700028F9D00948406820F00300CA
:1009D000074948600846406840F00200486000BF90
:1009E0000348406800F00C000828F9D10CBD000055
:1009F0000010024000200240042808D14FF0E021FE
:100A0000096941F004014FF0E022116107E04FF065
:100A1000E021096921F004014FF0E02211617047E3
:100A20007047000010B51348006840F001001149FC
:100A3000086008464068104908400E49486008466A
:100A400000680E4908400B4908600846006820F419
:100A5000802008600846406820F4FE0048604FF49B
:100A60001F008860FFF753FF4FF0006004490860E3
:100A700010BD0000001002400000FFF8FFFFF6FE6E
:100A800008ED00E010B540F22441144800F054F89D
:100A900080B112480088C4B21048001D0088C4B25A
:100AA00001200F4908700F48FFF75CFDC0F1C80036
:100AB0000D49087040F22661084800F03DF860B129
:100AC00040F22661054800F013F80021054814386B
:100AD000FFF796FC01200549087010BD0038014061
:100AE0001C000020580002401D0000201E000020B5
:100AF00010B50022002340F66A14A14200D100BFC5
:100B00000A1201249440A3B2DC43048010BD21B139
:100B1000828942F40052828104E082894DF6FF739B
:100B20001A40828170471AB1838A0B43838202E0A4
:100B3000838A8B438382704770B50246002400236A
:100B40000025002040F66A16B14200D100BFC1F373
:100B5000421501F01F03012606FA03F3012D02D10D
:100B60009689334006E0022D02D1168A334001E017
:100B7000968A33400C12012606FA04F41688344093
:100B800013B10CB1012000E0002070BDF0B50346A8
:100B9000002400260025002040F66A17B94200D143
:100BA00000BF1846C1F3421401F01F06012707FADF
:100BB00006F5012C01D10C3004E0022C01D11030DB
:100BC00000E014301AB107682F43076002E007689D
:100BD000AF430760F0BD00002DE9F04786B0054641
:100BE0000E460024A24600BFA1460027B08900B1EE
:100BF00000BF2F462C8A4CF6FF700440F088044357
:100C00002C82AC894EF6F3100440B0883189084339
:100C1000718908430443AC81AC8A4FF6FF4004401D
:100C2000B0890443AC8201A8FFF706FE1F48874243
:100C300002D1DDF810A001E0DDF80CA0A88900F4D5
:100C4000004040B10AEBCA0000EB0A1031684900CD
:100C5000B0FBF1F807E00AEBCA0000EB0A103168BC
:100C60008900B0FBF1F86420B8FBF0F00401200922
:100C7000642101FB1089A88900F4004040B13220B2
:100C800000EBC900B0FBF1F000F00700044308E0FE
:100C9000322000EB09106421B0FBF1F000F00F00EE
:100CA00004432C8106B0BDE8F08700000038014005
:100CB00000BFFEE700BF704710B56FF00400FFF7FC
:100CC0009BFE0A4800680A49B0FBF1F00949087028
:100CD0000846007800EB4001C1EBC0104FF6FF71F1
:100CE00001EAC0000449088010BD00000000002097
:100CF00000127A001400002016000020FFF7DCFF2D
:100D00004FF4A060FFF76CFDFFF7E0FC01E000F09E
:100D1000D5F8FCE710B592B00446012144F2040076
:100D2000FFF77AFD4FF40070ADF8440003208DF812
:100D3000460018208DF8470011A93E48FFF737FC00
:100D40004FF48060ADF8440004208DF8470011A9ED
:100D50003848FFF72CFC25208DF8300003208DF853
:100D600031008DF8320001208DF833000CA8FFF718
:100D7000FFFC0D940020ADF83800ADF83A00ADF856
:100D80003C00ADF840000C20ADF83E000DA92A480B
:100D9000FFF722FF01212848FFF7B9FE012240F2A8
:100DA00026612548FFF7F2FE012240F22441224845
:100DB000FFF7ECFE2148FFF72FFB20481430FFF728
:100DC0002BFB01210846FFF717FDC82004900020E7
:100DD00003900B901A480290002008908020069003
:100DE000002009901448001D0190002007900590F4
:100DF0004FF400500A9001A910481430FFF7B6FBD9
:100E000000200490102003900E48029001A90B4886
:100E1000FFF7ACFB012109481430FFF7F1FA01217B
:100E20000648FFF7EDFA0122C0210348FFF77BFED9
:100E300012B010BD000801400038014044000240DB
:100E400034000020FC00002010B500210548FFF709
:100E5000D7FAC8210348FFF7A7FB01210148FFF794
:100E6000CFFA10BD5800024070B504460D4605B1DA
:100E700004B970BDC82D01D9C82000E02846C6B20B
:100E800000BF0C48FFF76EFB0028FAD1324621461E
:100E90000948FFF7BCF900210648FFF7B1FA3146CF
:100EA0000448FFF781FB01210248FFF7A9FA00BFC0
:100EB000DFE7000044000240FC00002010B50948B4
:100EC000007801280DD1002006490870FFF7BCFF0B
:100ED000054801780548FFF7C7FFC8210348FFF719
:100EE000DBF910BD1C0000201D0000203400002094
:100EF000100F000800000020340000006C01000802
:100F0000440F000834000020F407000088010008A6
:100F100000A24A04000000000000000001020304D7
:100F200006070809000000000000000000000000A3
:100F3000000000000102030401020304060708097F
:040F40000204060899
:04000005080001CD21
:00000001FF
