:020000040800F2
:1000000028080020CD010008B1070008D10600082B
:10001000AD07000805040008C90F00080000000033
:10002000000000000000000000000000F10A0008CD
:10003000B50500080000000039080008050C00089C
:10004000E7010008E7010008E7010008E7010008F0
:10005000E7010008E7010008E7010008E7010008E0
:10006000E7010008E7010008E7010008E7010008D0
:10007000E7010008E7010008E7010008E7010008C0
:10008000E7010008E7010008E7010008E7010008B0
:10009000E7010008E7010008E7010008E7010008A0
:1000A000E7010008E7010008E7010008E701000890
:1000B000E7010008E7010008E7010008E701000880
:1000C000E7010008E7010008E7010008E701000870
:1000D000E7010008690C0008E7010008E7010008D3
:1000E000E7010008E7010008E7010008E701000850
:1000F000E7010008E7010008E7010008E701000840
:10010000E7010008E7010008E7010008E70100082F
:10011000E7010008E7010008E7010008E70100081F
:10012000E7010008E7010008E7010008E70100080F
:1001300000F002F800F03AF80AA090E8000C8244BF
:100140008344AAF10107DA4501D100F02FF8AFF29C
:10015000090EBAE80F0013F0010F18BFFB1A43F0A5
:10016000010318471010000030100000103A24BF9F
:1001700078C878C1FAD8520724BF30C830C144BF0C
:1001800004680C607047000000230024002500264E
:10019000103A28BF78C1FBD8520728BF30C148BFEA
:1001A0000B6070471FB51FBD10B510BD00F0F3F810
:1001B0001146FFF7F7FF00F0D1FF00F011F903B48B
:1001C000FFF7F2FF03BC00F0A5FF000009488047DD
:1001D00009480047FEE7FEE7FEE7FEE7FEE7FEE729
:1001E000FEE7FEE7FEE7FEE704480549054A064B41
:1001F00070470000090C00083101000828020020A7
:100200002808002028040020280400207047032A22
:1002100040F2308010F0030C00F0158011F8013B23
:10022000BCF1020F624498BF11F801CB00F8013B0A
:1002300038BF11F8013BA2F1040298BF00F801CBCE
:1002400038BF00F8013B11F0030300F04B80083A7F
:10025000C0F0088051F8043B083A51F804CBA0E8FC
:100260000810F5E7121D5CBF51F8043B40F8043B51
:10027000AFF30080D20724BF11F8013B11F801CB86
:1002800048BF11F8012B24BF00F8013B00F801CB57
:1002900048BF00F8012B70474FF000020429C0F05E
:1002A000128010F0030C00F05180CCF1040CBCF172
:1002B000020F18BF00F8012BA8BF20F8022BA1EBFA
:1002C0000C0100F043B85FEAC17C24BF00F8012BA9
:1002D00000F8012B48BF00F8012B704770477047AA
:1002E0007047704710B5203AC0F00B80B1E8185045
:1002F000203AA0E81850B1E81850A0E81850BFF410
:10030000F5AF5FEA027C24BFB1E81850A0E81850AE
:1003100044BF18C918C0BDE810405FEA827C24BF02
:1003200051F8043B40F8043B08BF7047D20728BF90
:1003300031F8023B48BF11F8012B28BF20F8023BDF
:1003400048BF00F8012B70474FF0000200B513467C
:1003500094469646203922BFA0E80C50A0E80C50E5
:10036000B1F12001BFF4F7AF090728BFA0E80C5096
:1003700048BF0CC05DF804EB890028BF40F8042B8F
:1003800008BF704748BF20F8022B11F0804F18BFFC
:1003900000F8012B7047754600F02CF8AE460500BA
:1003A0006946534620F00700854618B020B5FFF790
:1003B0001BFFBDE820404FF000064FF000074FF054
:1003C00000084FF0000B21F00701AC46ACE8C00973
:1003D000ACE8C009ACE8C009ACE8C0098D4670477C
:1003E00010B50446AFF300802046BDE81040FFF78B
:1003F000E6BE000000487047C801002010B500F0BC
:1004000077F910BD00BFFEE721B1026842F001029A
:10041000026004E002684FF6FE731A400260704703
:1004200001684FF6FE7211400160002101604160D9
:100430008160C1604B49884208D14A4908394968FE
:1004400041F00F01474A083A51608AE045491431AA
:10045000884208D143490839496841F0F001414ACE
:10046000083A51607DE03F492831884208D13D4932
:100470000839496841F470613A4A083A516070E0BD
:1004800038493C31884208D136490839496841F435
:100490007041344A083A516063E032495031884231
:1004A00008D130490839496841F470212D4A083A89
:1004B000516056E02B496431884208D129490839F6
:1004C000496841F47001274A083A516049E02549DA
:1004D0007831884208D123490839496841F0706170
:1004E000204A083A51603CE01F49884206D1011F6A
:1004F000096841F00F01021F116032E01A491431FE
:10050000884208D11849091F096841F0F001164ACC
:10051000121F116025E014492831884208D1124980
:10052000091F096841F470610F4A121F116018E039
:100530000D493C31884208D10B49091F096841F433
:100540007041094A121F11600BE00749503188427F
:1005500007D10549091F096841F47021024A121F99
:1005600011607047080002400804024001464868D4
:1005700080B2704710B50022026847F6F0739A43C4
:100580000C6A8B6823430C6923434C6923438C69B1
:100590002343CC6923434C6A23438C6A23431A4385
:1005A0000260CB6843600B6883604B68C36010BD1A
:1005B0004160704770472DE9F04102460025002652
:1005C000002000230024002791F803C00CF00F0541
:1005D00091F803C00CF0100CBCF1000F03D091F89F
:1005E00002C04CEA050591F800C0BCF1000F31D003
:1005F000146800202BE04FF0010C0CFA00F3B1F866
:1006000000C00CEA03069E4220D183004FF00F0C7D
:100610000CFA03F7BC4305FA03FC4CEA040491F816
:1006200003C0BCF1280F06D14FF0010C0CFA00FCFE
:10063000C2F814C00AE091F803C0BCF1480F05D11C
:100640004FF0010C0CFA00FCC2F810C0401C082846
:10065000D1D31460B1F800C0BCF1FF0F34DD546891
:1006600000202EE000F1080C4FF0010808FA0CF30E
:10067000B1F800C00CEA03069E4221D183004FF07E
:100680000F0C0CFA03F7BC4305FA03FC4CEA040414
:1006900091F803C0BCF1280F05D100F1080C08FA4D
:1006A0000CF8C2F8148091F803C0BCF1480F07D1D0
:1006B00000F1080C4FF0010808FA0CF8C2F810809D
:1006C000401C0828CED35460BDE8F081016170471A
:1006D00000BFFEE710B500F043F800F023F84FF438
:1006E000E13000F0D7FBFFF789FE00F0C3FC10BD3E
:1006F00008B50121082000F0C1F8C020ADF80000C5
:1007000010208DF8030003208DF80200694604488C
:10071000FFF751FFC0210248FFF7D8FF08BD0000D6
:10072000000C014008B50121442000F0A7F8182072
:10073000ADF8000048208DF8030069460648FFF731
:100740003AFF0120ADF8000028208DF8030069462B
:100750000248FFF730FF08BD0018014000080140C3
:1007600008B50121482000F089F82020ADF80000EC
:1007700010208DF8030003208DF802006946094817
:10078000FFF719FF20210748FFF7A0FF2020ADF851
:10079000000069460448FFF70EFF20210248FFF7DA
:1007A00095FF08BD000C01400018014000BFFEE7A6
:1007B0007047000070B5002100230F22C47804B3F5
:1007C000154C246804F4E064C4F5E064210AC1F126
:1007D0000403CA40447804FA03F1847814402143A6
:1007E00009010E4C0678A155047804F01F05012478
:1007F000AC4005786D11AD0005F1E025C5F800416C
:1008000009E0047804F01F050124AC40044D06788B
:10081000761145F8264070BD0CED00E000E400E0E4
:1008200080E100E002490143024A11607047000084
:100830000000FA050CED00E07047000029B1064AFF
:1008400052690243044B5A6104E0034A52698243ED
:10085000014B5A61704700000010024029B1064A5E
:10086000D2690243044BDA6104E0034AD26982434D
:10087000014BDA61704700000010024029B1064ABE
:1008800092690243044B9A6104E0034A92698243ED
:10089000014B9A61704700000010024030B5002102
:1008A0000022002400232D4D6D6805F00C0121B1BC
:1008B000042905D0082923D105E0294D056022E04F
:1008C000274D05601FE0254D6D6805F47012234D1E
:1008D0006D6805F48034022505EB92421CB9214D68
:1008E000554305600BE01D4D6D6805F400351DB1E5
:1008F0001C4D5543056002E0194D5543056002E06B
:10090000174D056000BF00BF144D6D6805F0F00184
:100910000909154D6B5C0568DD4045600F4D6D683C
:1009200005F4E061090A104D6B5C4568DD408560A7
:100930000A4D6D6805F46051C90A0B4D6B5C456842
:10094000DD40C560054D6D6805F44041890B074DDC
:100950006B5CC568B5FBF3F5056130BD0010024066
:1009600000127A0000093D0024000020340000201D
:1009700000B587B001210820FFF780FF012188031F
:10098000FFF76CFF4FF46040ADF8180018208DF8A9
:100990001B0003208DF81A0006A91848FFF70BFE6C
:1009A0004FF460411548FFF791FE0020ADF80400B8
:1009B0004FF48270ADF806000020ADF80800022068
:1009C000ADF80A000120ADF80C004002ADF80E00B1
:1009D0003820ADF810000020ADF812000720ADF867
:1009E000140001A9064800F065F80121044800F050
:1009F00047F8FF2000F006F807B000BD000C0140EA
:100A00000038004070B50546002405E0601CC4B203
:100A1000C82C01DD002070BD02210E4800F03CF81A
:100A20000028F3D029460B4800F042F8002405E0E6
:100A3000601CC4B2C82C01DD0020ECE70121054890
:100A400000F02AF80028F3D0024800F02EF8C0B2D7
:100A5000E1E700000038004010B504460748008870
:100A60004FF6C771084005490880084600882043B2
:100A700008800121014800F003F810BD0038004053
:100A800021B1028842F04002028004E002884FF661
:100A9000BF731A40028070470246002013890B4042
:100AA0000BB1012000E000207047014688897047A3
:100AB0008181704710B50022028802F441520B88F0
:100AC0004C8823438C882343CC8823430C892343BD
:100AD0004C8923438C892343CC8923431A430280C6
:100AE000838B4FF2FF74234083830B8A038210BDF4
:100AF000704710B500F002F810BD00000CB50020E2
:100B0000019000903348006840F48030314908601B
:100B100000BF3048006800F4003000900198401C8D
:100B20000190009818B90198B0F5A06FF1D129484B
:100B3000006800F4003010B10120009001E00020B6
:100B400000900098012843D12348006840F010002D
:100B5000214908600846006820F003000860084644
:100B6000006840F0020008601A484068194948606F
:100B70000846406848600846406840F48060486025
:100B80000846406820F47C1048600846406840F4FD
:100B9000E81048600846006840F08070086000BFB8
:100BA0000C48006800F000700028F9D0094840683F
:100BB00020F00300074948600846406840F0020002
:100BC000486000BF0348406800F00C000828F9D1D5
:100BD0000CBD00000010024000200240042808D193
:100BE0004FF0E021096941F004014FF0E02211616A
:100BF00007E04FF0E021096921F004014FF0E02205
:100C0000116170477047000010B51348006840F04C
:100C100001001149086008464068104908400E4923
:100C20004860084600680E4908400B4908600846BD
:100C3000006820F4802008600846406820F4FE0028
:100C400048604FF41F008860FFF753FF4FF00060CB
:100C50000449086010BD0000001002400000FFF8C9
:100C6000FFFFF6FE08ED00E010B540F22441144805
:100C700000F054F880B112480088C4B21048001D3A
:100C80000088C4B201200F4908700F48FFF76EFCBE
:100C9000C0F1C8000D49087040F22661084800F014
:100CA0003DF860B140F22661054800F013F80021DC
:100CB00005481438FFF7A8FB01200549087010BD4E
:100CC0000038014020000020580002402100002090
:100CD0002200002010B50022002340F66A14A14231
:100CE00000D100BF0A1201249440A3B2DC43048067
:100CF00010BD21B1828942F40052828104E08289D0
:100D00004DF6FF731A40828170471AB1838A0B43F4
:100D1000838202E0838A8B438382704770B50246E8
:100D2000002400230025002040F66A16B14200D1BD
:100D300000BFC1F3421501F01F03012606FA03F3B9
:100D4000012D02D19689334006E0022D02D1168A88
:100D5000334001E0968A33400C12012606FA04F46F
:100D60001688344013B10CB1012000E0002070BDA2
:100D7000F0B50346002400260025002040F66A173F
:100D8000B94200D100BF1846C1F3421401F01F065A
:100D9000012707FA06F5012C01D10C3004E0022CE2
:100DA00001D1103000E014301AB107682F430760FA
:100DB00002E00768AF430760F0BD00002DE9F0478F
:100DC00086B005460E460024A24600BFA146002775
:100DD000B08900B100BF2F462C8A4CF6FF7004404A
:100DE000F08804432C82AC894EF6F3100440B0889E
:100DF00031890843718908430443AC81AC8A4FF6BA
:100E0000FF400440B0890443AC8201A8FFF746FDCF
:100E10001F48874202D1DDF810A001E0DDF80CA0E8
:100E2000A88900F4004040B10AEBCA0000EB0A10A8
:100E300031684900B0FBF1F807E00AEBCA0000EBAB
:100E40000A1031688900B0FBF1F86420B8FBF0F0BB
:100E500004012009642101FB1089A88900F40040E5
:100E600040B1322000EBC900B0FBF1F000F0070008
:100E7000044308E0322000EB09106421B0FBF1F0DC
:100E800000F00F0004432C8106B0BDE8F08700009D
:100E90000038014010B592B00446012144F204002C
:100EA000FFF7ECFC4FF40070ADF8440003208DF820
:100EB000460018208DF8470011A93E48FFF77BFB3C
:100EC0004FF48060ADF8440004208DF8470011A96C
:100ED0003848FFF770FB25208DF8300003208DF88F
:100EE00031008DF8320001208DF833000CA8FFF797
:100EF00061FC0D940020ADF83800ADF83A00ADF873
:100F00003C00ADF840000C20ADF83E000DA92A4889
:100F1000FFF754FF01212848FFF7EBFE012240F2C2
:100F200026612548FFF724FF012240F22441224890
:100F3000FFF71EFF2148FFF773FA20481430FFF730
:100F40006FFA01210846FFF779FCC82004900020C1
:100F500003900B901A480290002008908020069081
:100F6000002009901448001D019000200790059072
:100F70004FF400500A9001A910481430FFF7FAFA14
:100F800000200490102003900E48029001A90B4805
:100F9000FFF7F0FA012109481430FFF735FA012173
:100FA0000648FFF731FA0122C0210348FFF7ADFEE2
:100FB00012B010BD0008014000380140440002405A
:100FC000380000200001002000BFFEE710B500211E
:100FD0000548FFF719FAC8210348FFF7E9FA01218C
:100FE0000148FFF711FA10BD5800024070B50446E1
:100FF0000D4605B104B970BDC82D01D9C82000E067
:101000002846C6B200BF0C48FFF7B0FA0028FAD154
:10101000324621460948FFF7FAF800210648FFF753
:10102000F3F931460448FFF7C3FA01210248FFF7FC
:10103000EBF900BFDFE700004400024000010020A0
:1010400010B50948007801280DD100200649087024
:10105000FFF7BCFF054801780548FFF7C7FFC82127
:101060000348FFF719F910BD2000002021000020DF
:101070003800002008B501210820FFF7FFFB4FF4DE
:101080008050ADF8000010208DF8030003208DF88B
:10109000020069460A48FFF78EFA4FF4805108486B
:1010A000FFF714FB012007490860FFF761FC0020EF
:1010B000FFF7D2FC00F00AF80349088008BD0000E1
:1010C000000C0140B08121421400002010B5002422
:1010D00000200E4908609020FFF794FC0020FFF7E5
:1010E00091FC0020FFF78EFC0020FFF78BFCFF2017
:1010F000FFF788FC44EA0024FF20FFF783FC044349
:1011000001200349C1F8B001204610BDB081214241
:101110000080214200BF704710B56FF00400FFF758
:101120005DFD0A4800680A49B0FBF1F00949087002
:101130000846007800EB4001C1EBC0104FF6FF718C
:1011400001EAC0000449088010BD00000000002032
:1011500000127A001600002018000020FFF7DCFFC4
:101160004FF4A060FFF75EFBFFF7B4FA01E0FFF772
:1011700067FFFCE794110008000000203800000021
:101180006C010008CC11000838000020F0070000B6
:101190008801000800A24A040000000000000000CE
:1011A000010203040607080917EF00000000000011
:1011B0000000000000000000000000000102030425
:0C11C000010203040607080902040608E7
:04000005080001CD21
:00000001FF
