:020000040800F2
:100000000006002049010008F72400081522000816
:10001000F5240008C50700086D280008000000004E
:10002000000000000000000000000000FB240008A9
:10003000D507000800000000F9240008FD2400088E
:100040006301000863010008630100086301000800
:100050006301000863010008D70700086301000876
:1000600063010008630100086301000863010008E0
:100070006301000863010008C90700086301000864
:1000800063010008630100086301000863010008C0
:1000900063010008630100086301000863010008B0
:1000A00063010008630100086301000863010008A0
:1000B0006301000863010008630100086301000890
:1000C0006301000863010008630100086301000880
:1000D000630100086128000863010008630100084B
:1000E0006301000863010008630100086301000860
:1000F0006301000863010008630100086301000850
:10010000630100086301000863010008630100083F
:10011000630100086301000863010008630100082F
:10012000630100086301000863010008630100081F
:10013000DFF810D000F0CAFA00480047C5290008CF
:10014000AFF30080000600200648804706480047BD
:10015000FEE7FEE7FEE7FEE7FEE7FEE7FEE7FEE777
:10016000FEE7FEE77D25000831010008202A04DBB8
:10017000203A21FA02F00021704721FA02F3D04020
:10018000C2F120029140084319467047D2B201E003
:1001900000F8012B491EFBD270470022F6E710B58C
:1001A00013460A4604461946FFF7F0FF204610BDE5
:1001B0002DE9FE4F804681EA0300C00F0C460090F7
:1001C00021F0004123F00045B8EB0200A94105D21F
:1001D0004046214690461C460B46024623F000400E
:1001E000104347D0270DC7F30A00C3F30A5102900A
:1001F000401A019040286BDAC3F3130040F4801BCF
:100200000098924620B10023D2EB030A63EB0B0B5C
:1002100001985946C0F14002504600F0A2F9064646
:100220000D4650465946019A00F0AAF910EB080015
:100230006141002487EA115284EAE7731A4340D0EF
:10024000009A62B3019A012A4FEA075215DC001B9B
:1002500061EB02014FF0004202EA0752CDE9004291
:10026000001C41F5801132462B4600F0E1F903B045
:10027000BDE8F08F40462146F9E7001B61EB020123
:10028000001C41F5801300185B412018A2F50017EF
:1002900047EB030140EAD570B6196D4111E06D08D6
:1002A0004FEA360645EAC0754FEA0752001B61EB7C
:1002B0000201001C41F5801149084FEA3000001985
:1002C000514132462B4603B0BDE8F04F00F0A1B9D2
:1002D0000098012240000023D0EB020263EBE073A0
:1002E000009821464FEAE074B8EB000061EB04018E
:1002F000E9E783F000435BE781F0004158E72DE92F
:10030000FE4F81EA030404F0004421F00041009410
:100310004FF0000B23F0004350EA01045ED052EA94
:1003200003045BD0C3F30A54C1F30A552C44A4F26E
:10033000F3340194A0FB0254C1F3130141F4801182
:10034000C3F3130343F4801301FB024400FB034E89
:10035000840A970A44EA815447EA8357A4FB076852
:1003600002958D0A05FB07854FEA932C04FB0C547C
:100370002705029D4FEA065847EA1637B5EB0805F0
:100380006EEB070C870E920E47EA811742EA831242
:10039000A7FB0201B6EB0B0164EB00042B0D43EA53
:1003A0000C335E1844EB1C50DA465146E7FB020161
:1003B000C5F313044FEA0B3343EA14534FEA0432F4
:1003C000019C43EA0603A4F10C040294009CCDE9CD
:1003D00000B400F02DF903B0BDE8F08F0020014615
:1003E000F9E72DE9F04D81EA030404F0004B21F018
:1003F000004514464FF0000A23F0004150EA050280
:1004000020D054EA01021DD0C5F30A570246C5F3B5
:100410001303C1F31300C1F30A5640F4801543F4EB
:100420008013A7EB0608101BD64608F2FD3873EBC5
:10043000050002D308F1010801E092185B41B8F110
:10044000000F03DA00200146BDE8F08D00204FF4D4
:100450008011064684460EE0171B73EB050705D393
:10046000121B63EB050306434CEA010C49084FEAF3
:10047000300092185B4150EA0107EDD152EA0300C7
:1004800012D082EA040083EA0501084305D0101B5C
:10049000AB4106D20122002306E000224FF00043C8
:1004A00002E06FF0010253101AEB06004CEB08510A
:1004B00010EB0A0041EB0B01BDE8F04D00F0A9B8CC
:1004C000C10F80EAE0700844CA079623002100F0BB
:1004D00072B896230022114600F06DB80EB5C10F18
:1004E00080EAE0700844CA07002140F233438DE8F7
:1004F0000E000A460B4600F09BF803B000BD70B535
:10050000C1F30A5201F000450024C1F3130140F287
:10051000FF3341F480119A4201DA002070BD40F2AD
:1005200033439A42A2F2334203DC5242FFF71EFEEB
:1005300000E090402C43F1D0404270BD00F00042FA
:1005400030F000400AD0C10D01F56071C0F3160013
:1005500042EA0151C208400711437047002001469A
:100560007047202A04DB203A00FA02F1002070478D
:100570009140C2F1200320FA03F3194390407047E1
:10058000202A06DBCB17203A41FA02F043EAE07357
:1005900006E041FA02F3D040C2F120029140084344
:1005A000194670470029A8BF7047401C490008BF82
:1005B00020F00100704710B4B0FA80FC00FA0CF093
:1005C00050EA010404BF10BC704749B1CCF12004CB
:1005D00021FA04F411FA0CF118BF01212143084358
:1005E000A3EB0C01CB1D4FEA00614FEA102042BF84
:1005F000002010BC704700EBC35010440029A4BF7A
:1006000010BC7047401C490008BF20F0010010BC1E
:10061000704710B5141E73F1000408DA401C41F154
:10062000000192185B411A4301D120F0010010BD76
:100630002DE9F04D92469B4611B1B1FA81F202E0EC
:10064000B0FA80F220329046FFF78BFF04460F4647
:1006500040EA0A0041EA0B0153465A46084313D0C8
:10066000114653EA010019D0C8F140025046FFF785
:100670007DFD05460E46504659464246FFF771FF3E
:10068000084305D0012004E020463946BDE8F08D3E
:100690000020054346EAE0762C4337430A98630579
:1006A000E40AA0EB08000022FD0A44EA47540A309D
:1006B00002D500200146E9E7010510196941DDE98D
:1006C000084500196941BDE8F04DA2E7064C074D09
:1006D00006E0E06840F0010394E807009847103412
:1006E000AC42F6D3FFF728FD682A0008882A0008E4
:1006F00070B5044600688168C943C90717D181688D
:1007000021F00101816000F041FE05460AE000BFD2
:1007100000F03CFE401B022804D920688068C043DA
:10072000C00706D020688068C043C007F0D0002012
:1007300070BDA06A40F01000A062E06A40F00100C5
:10074000E062012070BD0000F8B500260446009666
:1007500000688168C943C9072DD0816841F0010153
:100760008160164816490068B0FBF1F000E0401EB9
:1007700000900028FBD100F009FE054616E000BFFE
:1007800000F004FE401B022810D920688068C04396
:10079000C0070BD0A06A40F01000A062E06A40F0F1
:1007A0000100E06284F824600120F8BD20688068C0
:1007B000C043C007E4D10020F8BD000014000020B1
:1007C00040420F00FEE70000014800F06DBB000052
:1007D000A40100207047012000F0CABC72B6FEE7F9
:1007E000F8B500250446009590F8240001280BD0A8
:1007F000012084F824002046FFF77AFF2046FFF707
:10080000A3FF060002D050E00220F8BDA06A20F449
:10081000885040F00200A062022000F089FE2549C5
:100820000968B1FBF0F0400000E0401E0090002895
:10083000FBD12068816841F00801816000F0A6FDCD
:10084000074608E000F0A2FDC01B0A2803D9206873
:100850008068000715D4206880680007F2D42068FB
:10086000816841F00401816000F090FD074612E0CC
:1008700000F08CFDC01B0A280DD920688068400755
:1008800009D5A06A20F0020040F01000A06284F8B0
:1008900024500120F8BD206880684007E8D4A06A91
:1008A00020F0020040F00100A06284F8245030469D
:1008B000F8BD000014000020F8B50024009490F862
:1008C00024202546012A12D0012280F824204A68DB
:1008D0001F23072A0DD20668776B521E02EB820295
:1008E00093409F430B6893401F43776319E00220B6
:1008F000F8BD06680D2A0AD2376BD21F02EB8202BE
:1009000093409F430B6893401F43376309E0F76AA6
:100910000D3A02EB820293409F430B6893401F43C2
:10092000F7620A68072306680A2A0AD3F7680A3AB0
:1009300002EB420293409F438B6893401F43F76052
:1009400008E0376902EB420293409F438B68934073
:100950001F4337610A68102A01D0112A20D1124B97
:1009600002689A4217D193681B0219D4936843F422
:10097000000393600968102912D10C490C4A0968D8
:10098000B1FBF2F101EB8101490000E0491E009149
:100990000029FBD104E0816A41F020018162012439
:1009A00080F824502046F8BD0024014014000020A7
:1009B00040420F000068C06C704700002DE9F04114
:1009C00004004FF000057FD0A06A002628B9E66237
:1009D00084F82460204600F081F82046FFF788FE66
:1009E000A16AC90600D420B1A06A40F01000A0623C
:1009F0006AE0A16A21F4885141F00201A162334901
:100A000023688B42E16904D1B1F5402F01D14FF445
:100A10000021277B4FF4807C41EA470261680A434A
:100A2000A168614508D0012906D0002194F814E09E
:100A3000BEF1010F02D00AE06146F7E7C7B1A76A2D
:100A400047F02007A762E76A47F00107E7625F689F
:100A500027F469470F435F60236899681C4F39404A
:100A600011439960A16861450BD0012909D00CE0C0
:100A7000DFF860E0A7690EEB47370F4347F40061EA
:100A8000E5E7218A0D05A5F580152168CB6A23F4D9
:100A900070032B43CB62216889680F4B1940914248
:100AA00008D1E662A16A21F0020141F00101A162D0
:100AB000BDE8F081A06A20F0020040F01000A062C2
:100AC000E06A40F00100E0620120F1E7003C0140F3
:100AD000FDF7E1FF00E0FFFFFE0E1FFF00B585B050
:100AE0000021009101910291039100680E49884212
:100AF00018D10E48816941F400718161816901F466
:100B000000710491816941F0040181618069694645
:100B100000F004000490022000900320019004489B
:100B200000F032FB05B000BD00240140001002407F
:100B3000000801402DE9F84300270D4604460097C0
:100B400000F024FC804620688168C90508D5A06AA9
:100B500040F02000A06284F824700120BDE8F883F2
:100B60004168C90503D4C06A10F4700F2AD002206E
:100B700000F0DEFC3B490968B1FBF0F62068036930
:100B800039490B424FEA61014FEAA1121FD1C368F4
:100B90004FEA611C13EA0C0F19D103690B4225D1EE
:100BA000C068104222D1142023E0681C0AD02DB165
:100BB00000F0ECFBA0EB0800A84203D92068006815
:100BC000800725D5206800688007EED52DE00369F1
:100BD0000B4202D1C168114206D0026923490A4280
:100BE00006D1C068084203D1542002E0292000E069
:100BF000FC204643009816E0681C11D02DB100F08F
:100C0000C5FBA0EB0800A8420AD90098B04207D261
:100C1000A06A40F00400A06284F8247003209DE7DD
:100C20000098401C0090B042E6D321686FF012009B
:100C30000860A06A40F40070A06220688068C0F379
:100C4000424007280CD1207B50B9A06A20F4807064
:100C5000A062A06AC00403D4A06A40F00100A062B0
:100C600000207BE7140000202449922449922400AC
:100C700070B5044690F8240001280DD0012084F8B6
:100C800024002046FFF760FD02004FF0000005D071
:100C900084F82400104670BD022070BDA16A40F2A5
:100CA0000123994341F48071A1621F4D23681F49BC
:100CB000AB4218D10E6816F4702F14D0A66A46F411
:100CC0008016A6620E68760505D5A66A26F400563B
:100CD00046F48056A662A66AF6040AD5E66A26F0AD
:100CE0000606E66206E0A66A26F48016A6625E683C
:100CF000E9E7E06284F824006FF0020018602068E1
:100D00008368C3F34243072B05D1A84208D1096881
:100D100011F4702F04D0816841F480118160B9E72B
:100D2000816841F4A001F9E7002801400424014052
:100D300010B590F821100022022905D0042181630A
:100D400080F82020012010BD01680B6823F00E03FD
:100D50000B6001680B6823F001030B6090F84030D2
:100D6000C46B012101FA03F3636080F8211080F85D
:100D70002020104610BD00002DE9F05F90F82110F2
:100D80000024022903D004218163012485E0016845
:100D90000A6822F00E020A6001680A6822F0010265
:100DA0000A603F4E3E4FB215DFF8F4C0DFF8F09016
:100DB000DFF8ECA0DFF8E8B0DFF8E4E00168783FA6
:100DC00013011502ACF1640CA9F15009AAF13C0A17
:100DD000ABF1280BAEF1140E4FF48018B14227D9B5
:100DE000B9420ED0614512D049451DD0514518D0A9
:100DF000594518D0714501D1424615E0294EB142FE
:100E000001D1012210E0274E1436B14201D1102247
:100E10000AE0244E2836B14206D0224A3C329142A2
:100E200001D11A4600E02A461E49091F0A602BE03C
:100E3000B94213D0614517D0494522D051451DD044
:100E400059451DD0714501D142461AE0B14202D147
:100E50004FF0807215E0134EB14201D1012210E033
:100E6000104E1436B14201D110220AE00D4E283640
:100E7000B14206D00B4A3C32914201D11A4600E001
:100E80002A46074980394A60012180F82110002153
:100E900080F82010416B01B188472046BDE8F09FE3
:100EA00080000240080402402DE9F05FC16B0A682F
:100EB00001680B68046C4FF0040808FA04F8844DCC
:100EC000844E854FDFF814C2DFF81492DFF814A2C5
:100ED000DFF814B2DFF814E218EA020F65D05FEA17
:100EE000437862D50A68920603D40A6822F00402A5
:100EF0000A60DFF8F0814FF48062016808F114089D
:100F000013011402414524D9A9420DD0B1420FD09A
:100F1000B9421AD0614515D0494515D0514501D186
:100F2000120312E0594501D104220EE0714501D1AE
:100F300040220AE06D4D1435A94206D06B4A283292
:100F4000914201D11A4600E022466749091F0A6012
:100F500029E0A94213D0B14215D0B94220D0614551
:100F60001BD049451BD0514502D14FF4800217E0F8
:100F7000414502D14FF0806212E0594501D104226F
:100F80000EE0714501D140220AE0584D1435A942C6
:100F900006D0564A2832914201D11A4600E0224634
:100FA0004B4908394A60C16A71E04FF0020808FAFB
:100FB00004F818EA020F70D05FEA83786DD50A68EA
:100FC000920606D40A6822F00A020A60012180F81B
:100FD0002110DFF810814FF40072016808F1140845
:100FE00013011402414524D9A9420DD0B1420FD0BA
:100FF000B9421AD0614515D0494515D0514501D1A6
:10100000120312E0594501D102220EE0714501D1CF
:1010100020220AE0354D1435A94206D0334A283241
:10102000914201D11A4600E022462F49091F0A6069
:1010300029E0A94213D0B14215D0B94220D0614570
:101040001BD049451BD0514502D14FF4001217E087
:10105000414502D14FF0007212E0594501D1022200
:101060000EE0714501D120220AE0204D1435A9423D
:1010700006D01E4A2832914201D11A4600E022468B
:10108000134908394A60002180F82010816A00293C
:101090001CD0BDE8F05F0847FFE70825A5401542D2
:1010A00014D01A0712D50A6822F00E020A6090F8CE
:1010B0004020C36B012101FA02F25A60816380F87B
:1010C0002110002180F82010016BE0E7BDE8F09FBF
:1010D000080002401C000240300002404400024070
:1010E000580002406C000240080402401C04024008
:1010F00030B560B11A4B026814219A4209D2194BDB
:101100001344B3FBF1F18900016417490AE001209F
:1011100030BD134B5B421344B3FBF1F18900016412
:101120000F490839C163022180F82110136843F682
:10113000F0718B43F0E901142143D0E902452C43BF
:1011400021430469214344692143846921431943AC
:10115000116000214163012242770177084630BDCA
:1011600008040240F8FFFDBF000002407047000085
:10117000044910B50A68024202D00860FFF7F6FF82
:1011800010BD0000140401402DE9F84FDFF8C891AC
:101190000024A9F1040B23460F2709F1040AABF13F
:1011A000040ED1E00125A54006EA0502AA4276D147
:1011B000DFF8A8C14E68A6EB0C0866452BD00DDC05
:1011C000032E34D005DC36B3012E19D0022E2FD1D8
:1011D0001BE0112E16D0122E2AD119E0B8F5881F67
:1011E00019D006DCB8F5803F15D0B8F5801F1FD1A7
:1011F00011E0B8F5001F0ED0B8F5041F18D10AE0B1
:10120000CB6815E0CB681B1D12E0CB6808330FE0FC
:10121000CB680C330CE08B682BB1012B4FF008032B
:1012200003D0456104E0042302E0056100E00023EF
:10123000FF2A01D8064601E000F104064FEA8405C2
:1012400001D9A5F12005D6F8008007FA05FC28EAA7
:101250000C0803FA05F548EA0508C6F800804D6851
:10126000ED0070D53E4DAE6946F00106AE61AD6948
:1012700024F0030605F0010500953A4D06EB050C38
:10128000DCF80850A607360F07FA06F825EA080525
:10129000DFF8D480404503D14FF0000825E052E04C
:1012A000DFF8C880404502D14FF001081DE0DFF8AB
:1012B000C080404502D14FF0020816E0DFF8B4804C
:1012C000404502D14FF003080FE0DFF8AC80404505
:1012D00002D14FF0040808E0DFF8A080404502D1B9
:1012E0004FF0050801E04FF0060808FA06F848EA52
:1012F0000508CCF808804D68D9F80060ED024D462D
:1013000001D5164300E096432E604D68DAF8006080
:10131000AD02554601D5164300E096432E604D6858
:10132000DBF80060AD035D4601D5164300E096434F
:101330002E604D68DEF80060ED03754601D516435A
:1013400000E096432E60641C0A681646E2407FF473
:1013500029AFBDE8F88F000008040140000011101B
:10136000001002400000014000080140000C014054
:10137000001001400014014000180140001C014011
:101380000AB1016170470904FBE700000148806869
:10139000704700000800002070B5040013D02168D9
:1013A0004CF6CC400860216845F255500860D4E9FD
:1013B000000141602168A0688860FFF7E7FF0546EB
:1013C00041F23C360DE0012070BD00BFFFF7DEFFAB
:1013D000401BB04205D92068C068800701D00320B7
:1013E00070BD2068C0688007F0D121684AF6AA2045
:1013F0000860002070BD0000024881680278114436
:101400008160704708000020074810B5016841F06E
:1014100010010160032000F079F8032000F006F8C5
:1014200000F024F8002010BD0020024070B50D4DE2
:1014300004464FF47A712878B1FBF0F00A49096844
:10144000B1FBF0F000F0B2FB48B9102C07D200223B
:101450002146501E00F03AF800206C6070BD01205B
:1014600070BD000008000020140000200E4808B5E0
:10147000816941F001018161816901F001010091FF
:10148000C16941F08051C161C06900F08050009095
:10149000052000F03BF80548416821F0E06141F08B
:1014A0000071416008BD00000010024000000140D2
:1014B000002809DB00F01F02012191404009800053
:1014C00000F1E020C0F8001170470000F0B40E4BAE
:1014D0001B680C46C3F30223C3F10705042D00D992
:1014E0000425191D072901D2002300E0DB1E012677
:1014F00006FA05F1491E214099409E40761E16408D
:101500003143F0BC01F0B3B90CED00E0064900F046
:10151000070208684FF6FF03184040EA0220034A1A
:1015200010430860704700000CED00E00000FA0571
:1015300010B501460020284C04292FD00BDC0129CE
:1015400030D0022929D100F06BF96168C1F38131F3
:10155000491C49001FE0082920D010291DD16168CD
:101560002268D20119D51D48C1F38342C903805CAA
:101570000AD56168194AC1F34041921E515C184A6C
:10158000B2FBF1F1484301E0164948436168490262
:1015900003D440000321B0FBF1F010BDBDE81040C2
:1015A00000F04EB9226AC2F30121012903D192074A
:1015B00001D5C80310BD022905D1626A920702D580
:1015C00049F6404010BD0329FCD121688903F9D5B3
:1015D0004FF2244010BD000000100240402A0008D5
:1015E00000127A0000093D002DE9F8430546007815
:1015F000354CC00754D0E0690026C00008D4E0692B
:1016000040F08050E061E069012600F080500090D9
:101610002E480168C90512D40168804641F48071E2
:101620000160FFF7B3FE074605E000BFFFF7AEFE1F
:10163000C01B642823D8D8F80000C005F6D5206A5E
:1016400010F4407021D0A98801F4407181421CD06F
:10165000206A1F49012220F440700A6000220A60BB
:101660002062C00711D0FFF791FE074641F288388B
:1016700008E000BFFFF78AFEC11B414502D90320E5
:10168000BDE8F883206A8007F4D5206A696820F4F1
:101690004070084320621EB1E06920F08050E06194
:1016A0002878800705D56068A96820F44040084381
:1016B00060602878C00605D56068696920F48000FC
:1016C000084360600020DBE700100240007000402B
:1016D000400442422DE9F0470F46050061D0434ED9
:1016E000306800F00700B84209D2306820F00700E7
:1016F00038433060306800F00700B84251D12868A4
:101700003B4C810712D5400703D5606840F4E06088
:1017100060602878000703D5606840F4605060601E
:101720006068A96820F0F000084360602878C0076E
:1017300028D06868012810D02168022810D08907B5
:1017400000292EDA616821F0030101436160FFF78F
:101750001DFE804641F288390DE021688903EFE7DC
:101760008901EDE7FFF712FEA0EB0801494502D918
:101770000320BDE8F0876068696800F00C00B0EBFA
:10178000810FEFD1306800F00700B8420BD9306804
:1017900020F0070038433060306800F00700B8429E
:1017A00001D00120E5E72878400705D56068E968A1
:1017B00020F4E060084360602878000706D5606880
:1017C000296920F4605040EAC100606000F038F8F8
:1017D0006168084AC1F30311515CC84006490860BA
:1017E00006480068FFF722FE0020C2E70020024002
:1017F00000100240502A0008140000200C000020B5
:101800000448054900684968044AC1F30221515C53
:10181000C84070471400002000100240602A0008F1
:101820000448054900684968044AC1F3C221515C73
:10183000C84070471400002000100240602A0008D1
:101840000E4A51680E4801F00C03042B11D0082BEE
:101850000FD10C48C1F38343C903C05C0AD551685A
:10186000084AC1F34041921E515C054A5043B0FB07
:10187000F1F07047044948437047000000100240EF
:1018800000127A002E2A000800093D002DE9F84FC9
:10189000040070D02078C04DC00749D06868C0F3FC
:1018A0008100012807D06868C0F38100022809D1AF
:1018B0006868C00306D52868800339D560680028A9
:1018C000E7D035E06068B0F5803F0BD010B1B0F5DF
:1018D000A02F11D0286820F480302860286820F4D8
:1018E000802002E0286840F480302860606890B171
:1018F000FFF74CFD06460AE0286840F48020286087
:10190000F0E700BFFFF742FD801B642873D828680A
:101910008003F7D50CE0FFF739FD064605E000BF70
:10192000FFF734FD801B6428F0D828688003F7D4C3
:1019300020789A4E80074FF001094FF0000839D502
:10194000686810F00C0F07D06868C0F381000228A7
:1019500009D16868C00306D42868800714D52069B7
:10196000012808D110E02069B0B1C6F80090FFF757
:101970000DFD074605E00AE1FFF708FDC01B022840
:10198000C4D828688007F7D52868616920F0F80076
:1019900040EAC10028600DE0C6F80080FFF7F6FCC1
:1019A000074604E0FFF7F2FCC01B022823D8286892
:1019B0008007F7D4207800072CD57948A169D9B1E0
:1019C000C0F80090FFF7E2FC074604E0FFF7DEFCFA
:1019D000C01B02280FD8686A8007F7D571484FF4FA
:1019E000FA510068B0FBF1F0009000BF0098411E72
:1019F0000091FAD20EE080E0C0F80080FFF7C6FC4C
:101A0000074604E0FFF7C2FCC01B022875D8686ACD
:101A10008007F7D42078400760D5E8690027C00028
:101A200008D4E86940F08050E861E869012700F0D7
:101A3000805000905C480168C90513D40168834652
:101A400041F480710160FFF7A1FC824606E000BF0F
:101A5000FFF79CFCA0EB0A0064284ED8DBF80000DE
:101A6000C005F5D5E06801280AD008B1052813D0D3
:101A7000286A20F001002862286A20F0040002E0B1
:101A8000286A40F001002862E06841F2883B98B182
:101A9000FFF77CFC82460BE0286A40F004002862D5
:101AA000EEE700BFFFF772FCA0EB0A0159455AD8D8
:101AB000286A8007F6D50CE0FFF768FC824605E04F
:101AC000FFF764FCA0EB0A0159454CD8286A80074F
:101AD000F6D41FB1E86920F08050E861E06988B36E
:101AE0006968C1F38101022944D00228C6F86080E8
:101AF00004D0FFF74BFC044638E034E0FFF746FC27
:101B0000074604E0FFF742FCC01B02282BD82868D8
:101B10008001F7D4206AB0F5803F05D16868A168DC
:101B200020F4003008436860D4E90801084369687C
:101B300021F4741108436860C6F86090FFF726FC32
:101B4000044606E025E000BFFFF720FC001B02284A
:101B500009D828688001F7D51BE000BFFFF716FC05
:101B6000001B022802D90320BDE8F88F28688001F5
:101B7000F4D40EE00128F7D06868226A00F48031BE
:101B8000914204D1616A00F47010884201D00120B2
:101B9000EAE70020E8E700000010024000004242AF
:101BA00080044242140000200070004010B5401E26
:101BB000B0F1807F01D3012010BD4FF0E0246061BF
:101BC0000F21601700F053FE0020A0610720206164
:101BD000002010BD70B590F83C20012A2CD00124C3
:101BE00080F83C40022280F83D2003685A689D68D6
:101BF00022F070060A6832435A60104B02689A421B
:101C00000ED00F4B9A420BD0B2F1804F08D00D4B43
:101C10009A4205D00C4B9A4202D00C4B9A4204D106
:101C2000496825F080031943916080F83D40002108
:101C300080F83C10084670BD022070BD002C0140A9
:101C4000003401400004004000080040000C004047
:101C500010B5040003D094F83D0010B107E0012056
:101C600010BD002084F83C00204600F01FF8022040
:101C700084F83D00211D206800F082FC012084F8DA
:101C8000460084F83E0084F83F0084F8400084F861
:101C9000410084F8420084F8430084F8440084F84A
:101CA000450084F83D00002010BD000008B50C4A36
:101CB00001680C48914207D1C16941F00201C1613C
:101CC000C06900F0020009E0074A914207D1C169EA
:101CD00041F01001C161C06900F01000009008BD22
:101CE00000040040001002400010004090F83D1039
:101CF000012901D001207047022180F83D100168C0
:101D0000CA6842F00102CA6000680E4988420ED0DB
:101D10000D4988420BD0B0F1804F08D00B49884262
:101D200005D00B49884202D00A49884204D1816813
:101D300001F00701062903D0016841F001010160AB
:101D400000207047002C0140003401400004004096
:101D500000080040000C004070B5044690F83C00BC
:101D60000025012817D0012684F83C60022084F861
:101D70003D002068826822F0770222F47F42826070
:101D80000868502838D00DDC20284FD005DC90B3EF
:101D9000102811D14AE0022070BD302846D04028DA
:101DA0000AD13BE060282FD070280DD0B0F5805FBD
:101DB00003D0B0F5005F12D0012584F83D6000200B
:101DC00084F83C00284670BDCB68D1E90121206829
:101DD00000F024FC2068816841F0770109E0CB68BD
:101DE000D1E90121206800F019FC2068816841F4E4
:101DF00080418160E1E719E0CA684968206800F025
:101E00001FFC5021206806E0CA684968206800F07D
:101E100028FC6021206800F00BFCCEE7CA68496806
:101E2000206800F00DFC40212068F4E7226801469C
:101E30001046F0E770477047F8B501680446086837
:101E4000CA684B6910F00F0F4FF0000559D003F02E
:101E5000010602F49077374365D0C10705D0D1055C
:101E600003D5616C41F001016164410705D5D907D3
:101E700003D0616C41F002016164810705D5D90787
:101E800003D0616C41F004016164010707D502F0E1
:101E90002001314303D0616C41F008016164616C41
:101EA00000293AD0800604D5900602D5204600F0DD
:101EB00019FC20684069616CC0F38010090700D4E8
:101EC00060B3204600F0E7FB20684069400621D55A
:101ED0002068143050E8001F21F0400140E8001253
:101EE000002AF5D1E06BA8B16D494163E06BFEF7C4
:101EF00043FF002811D0E06B416B01B0BDE8F0401A
:101F0000084783060FD593060DD52046BDE8F84057
:101F100000F0E8BB2046FFF78EFFF8BD2046FFF734
:101F20008AFF6564F8BD266B2023012E7CD1C6068E
:101F30007AD5D60678D508684868009048694FF089
:101F40000206400640D5E16B086840680004000CBA
:101F5000E8D0A28D8242E5D9E085886920282DD07D
:101F600020680C3050E8001F21F4807140E8001216
:101F7000002AF5D12068143050E8001F21F001013B
:101F800040E80012002AF5D12068143050E8001F04
:101F900021F0400140E80012002AF5D184F84230D7
:101FA000256320680C3050E8001F21F0100140E844
:101FB0000012002AF5D1E06BFEF7BAFE6663A08D31
:101FC000E18D401A81B22AE0A08DE18D401A81B2E4
:101FD000E08D0028A6D00029A4D022680C3252E857
:101FE000000F20F4907042E80007002FF5D1206820
:101FF000143050E8002F22F0010240E80027002FA3
:10200000F5D184F84230256320680C3050E8002F69
:1020100022F0100240E80023002BF5D16663204631
:10202000FFF708FFF8BDFFE705062BD5150629D5F4
:1020300094F841002128F5D1A068B0F5805F01D166
:102040002069B0B1206A411C216221680078486093
:10205000E08C401E0004000CE084E3D12068C168DD
:1020600021F08001C1602068C16841F04001C16079
:10207000D8E7206A0088C0F308004860206A801C06
:102080002062E5E74006CDD55006CBD5CA6820468C
:1020900022F04002CA6084F8413000F090F8C1E7B5
:1020A0008726000870B5040004D094F8410000258C
:1020B00010B106E0012070BD84F84050204600F0C9
:1020C00023F8242084F841002068C16821F40051DD
:1020D000C160204600F068FB2068016921F490414E
:1020E00001612068416921F02A0141612068C168CD
:1020F00041F40051C1606564202084F8410084F8F7
:1021000042006563002070BD70B586B000250646AC
:10211000009501950295039500682349884240D1B6
:102120002249886940F480408861886900F48040D1
:102130000490886940F00400886188691C4C00F0B4
:1021400004000490481500900220019003200390A1
:1021500069462046FFF718F82015CDE900056946C5
:1021600020460295FFF710F8134C1248206010200B
:10217000C4E901058020C4E9030540016561C4E9A3
:1021800006502046FEF7B4FF08B1FEF727FBB46304
:102190000222114625206662FFF798F92520FFF7F5
:1021A00087F906B070BD0000003801400010024001
:1021B0000008014044000240A4010020704770471D
:1021C00010B504000FD000F011F8E068216840F06D
:1021D00080000860616820690843A168084321689D
:1021E0004860002010BD012010BD000008B5006847
:1021F0000649884208D10648C16941F40061C161BD
:10220000C06900F40060009008BD0000002C004090
:1022100000100240FEE700003EB500211248009188
:102220000191104A029102608160017301750124DD
:102230004FF460220461C2614160FEF7BFFB08B148
:10224000FEF7CCFA1020CDE9000407200290694681
:102250000548FEF731FB08B1FEF7C0FA0248FEF769
:10226000BFFA3EBD0024014090000020094808B597
:10227000416941F0010141614069002200F0010023
:10228000009011460E20FFF721F9BDE808400E200E
:10229000FFF70EB9001002402DE9F04385B0002091
:1022A00000900190029003903648816941F040010E
:1022B0008161816901F040010491816941F010015F
:1022C0008161816901F010010491816941F004018B
:1022D0008161816901F004010491816941F0080183
:1022E00081618069284F00F00800049001222021BC
:1022F0003846FFF745F8DFF8949001222021484640
:10230000FFF73EF84FF48078002241464846FFF739
:1023100037F8182000901E480124CDE901046946D1
:102320003846FEF731FF2026CDE9006403256946D3
:102330003846CDE90245FEF727FF16480227CDE9CA
:102340000040694602971448FEF71EFFCDE900647D
:1023500069464846CDE90245FEF716FFCDF80080F4
:102360000395CDE9014769464846FEF70DFF022275
:1023700011460620FFF7AAF80620FFF799F805B0E6
:10238000BDE8F0830010024000180140000C01403D
:10239000000021100000111000080140094810B58C
:1023A000074901600421416040F271218160FEF71C
:1023B000F3FF002803D0BDE81040FEF70FBA10BDB0
:1023C00000300040C000002010B586B0002419483D
:1023D00000940194029403940494154905940160B7
:1023E00041F61F41C0E9011441F28731C0E90314ED
:1023F00080218161FFF72CFC08B1FEF7EFF94FF463
:102400008050009069460B48FFF7A6FC08B1FEF724
:10241000E5F9049404A907480594FFF7DBFB08B12C
:10242000FEF7DCF90348FFF761FC06B010BD0000C1
:1024300000040040CC0000201CB50024104800948B
:102440000E490194016041F61F41C0E9011441F2B7
:102450008731C16080218161FFF7FAFB08B1FEF787
:10246000BDF90094694606480194FFF7B3FB08B133
:10247000FEF7B4F90248FFF739FC1CBD001000401C
:10248000140100200C4810B50A4901604FF4E131F5
:102490004160002181600C22C160C0E904128161A9
:1024A000C161FFF7FFFD002803D0BDE81040FEF733
:1024B00095B910BD003801405C0100200C4810B5F2
:1024C0000A4901604FF4C07141605F2181607F2142
:1024D000C1604FF400710161FFF772FE002803D064
:1024E000BDE81040FEF77AB910BD0000002C004096
:1024F000E8010020FEE7FEE770477047FEF77CBF6B
:1025000030B595B028216846FDF747FE14210AA88A
:10251000FDF743FE18210FA8FDF73FFE092001211A
:1025200000904FF48030002504910691CDE901051B
:102530000224CDE907404FF4E01009906846FFF708
:10254000A5F908B172B6FEE70AA90F2081E83100AB
:102550004FF48060CDE90D0502210AA8FFF7BAF813
:1025600008B172B6FEE70FA811950F94FFF73CF87B
:10257000002801D072B6FEE715B030BD70470000EC
:10258000F0B50268204C214D214E224F224B4FF0D6
:10259000804CA04209D0984207D0604505D0A8429F
:1025A00003D0B04201D0B84204D122F0700E4A6884
:1025B00042EA0E02A04209D0984207D0604505D0F9
:1025C000A84203D0B04201D0B84203D122F44075F2
:1025D000CA682A434D6922F080022A4302608A6851
:1025E000C2620A688262A04201D0984201D10969A0
:1025F0000163012141610169C90703D0016921F02B
:1026000001010161F0BD0000002C01400004004008
:1026100000080040000C00400034014010B5846800
:1026200042EA032224F47F440A432243826010BD1D
:10263000826822F070020A4342F00701816070470D
:1026400010B5036A046A24F001040462846924F06A
:10265000F00444EA021423F00A020A43846102628D
:1026600010BD10B5036A046A24F010040462846982
:1026700023F0A00324F4704444EA023243EA011137
:102680008261016210BD10B5406A0021C185C1841C
:10269000FFF7D1FB10BD01680C3151E8002F22F487
:1026A000907241E80023002BF5D10168143151E804
:1026B000002F22F0010241E80023002BF5D1016B2D
:1026C000012909D101680C3151E8002F22F01002D4
:1026D00041E80023002BF5D1202180F84210002191
:1026E0000163704708B590F84210222901D00220FA
:1026F00008BD82684FF480539A4201D1016921B12B
:10270000816A9A421BD04AB10AE00268816A526823
:10271000C2F308020A80816A891C08E0026972B16A
:102720000268526802F07F020A70816A491C816265
:10273000C18D491E0904090CC18503D01BE0026844
:102740005268F1E70168CA6822F02002CA60016895
:10275000CA6822F48072CA6001684A6922F00102E4
:102760004A61202180F8421000214163026B012A56
:1027700003D0FFF723FD002008BD016301680C3181
:1027800051E8002F22F0100241E80023002BF5D180
:1027900001680A68D20602D50A6849680091818DED
:1027A000FFF748FBE7E7000070B5044600680169E1
:1027B000E26821F44051114301612169A068084396
:1027C000616908432168CA6841F20C639A43024375
:1027D000CA6020684169A26921F4407111434161D6
:1027E0001E492068884202D1FFF71AF801E0FFF77E
:1027F00007F800EBC00101EB001260686421800063
:10280000B2FBF0F3B3FBF1F36FF018067343B2FBC6
:10281000F0F5B2FBF0F605EB8305322303EB05156B
:10282000B5FBF1F5B6FBF1F605F0F00505EB061585
:10283000B2FBF0F6B2FBF0F0B0FBF1F06FF0180273
:10284000504306EB800003EB0010B0FBF1F0216871
:1028500000F00F002844886070BD0000003801407F
:102860000148FFF7E9BA00005C010020FEE7090714
:10287000090E002804DB00F1E02080F80014704706
:1028800000F00F0000F1E02080F8141D704702E016
:1028900008C8121F08C1002AFAD1704770470020EB
:1028A00001E001C1121F002AFBD170470EB58DE86F
:1028B0000E006946FEF700F80EBD000010B5014697
:1028C000072301220748FFF7F1FF0648FEF7D0F97A
:1028D0000A210448FEF72EF90248FEF76BF880B291
:1028E00010BD0000900000202DE9F04100250E46AB
:1028F00007462C4608E03846FFF7E0FF0544052070
:1029000000F040F8641CE4B2B442F4D3B5FBF6F036
:10291000BDE8F08110B514211020FFF7E5FFFDF7A9
:10292000D8FDFDF70BFE4FF066320D4BFDF7E7FCCF
:10293000FDF7E5FD00B2FDF7D1FD0A4A0A4BFDF7B0
:10294000DBFC0A4A0A4BFDF74CFD0022094BFDF760
:102950002FFCFDF7D4FD6421484300B210BD0000F8
:1029600066664A3FE17A14AE47E1F63F22FDF6750E
:10297000E09C713F00003940002343600360C0E9E0
:10298000021270474FF47A71484300F001B800001A
:1029900070B54FF0E024002265690949A369096810
:1029A0004843A1699942FCD002D2A3EB010302E0A3
:1029B000A5EB010633441A440B468242F1D370BDA5
:1029C00018000020FEF720FDFFF79AFDFFF764FCDA
:1029D000FFF74CFCFFF756FDFFF7E0FCFFF76EFD3D
:1029E000FFF72AFDFFF7F0FCFFF716FC0C4A642105
:1029F00002F16400FFF7C0FF0A4C0B4DFFF78AFF9E
:102A0000FDF75EFD6060012220212846FEF7B8FC3C
:102A10000A20FFF7B7FF2078401C2070EEE7000087
:102A20001C000020000000200018014001020203E9
:102A30000405060708090A0B0C0D0E0F1010010201
:102A400002030405060708090A0B0C0D0E0F1010EF
:102A5000000000000000000001020304060708094E
:102A60000000000001020304882A00080000002082
:102A70001C0000008E280008A42A00081C0000206A
:102A8000E40500009E28000800000000000000008F
:102A900001000000100000000000000000127A0099
:042AA0000000000032
:0400000508000131BD
:00000001FF
