:020000040800F2
:10000000F816002079020008A51D0008C51C00088C
:10001000A11D0008F919000849250008000000008A
:10002000000000000000000000000000E5200008C3
:10003000A91B0008000000002D1E0008F92100087F
:10004000930200089302000893020008930200083C
:10005000930200089302000893020008930200082C
:10006000930200089302000893020008930200081C
:10007000930200089302000893020008930200080C
:1000800093020008930200089302000893020008FC
:1000900093020008930200089302000893020008EC
:1000A00093020008930200089302000893020008DC
:1000B00093020008930200089302000893020008CC
:1000C00093020008930200089302000893020008BC
:1000D000930200085D2200089302000893020008C2
:1000E000930200089302000893020008930200089C
:1000F000930200089302000893020008930200088C
:10010000930200089302000893020008930200087B
:10011000930200089302000893020008930200086B
:10012000930200089302000893020008930200085B
:1001300000F002F800F090F80AA090E8000C824469
:100140008344AAF10107DA4501D100F085F8AFF246
:10015000090EBAE80F0013F0010F18BFFB1A43F0A5
:1001600001031847F028000010290000103A24BFAE
:1001700078C878C1FAD8520724BF30C830C144BF0C
:1001800004680C607047000000230024002500264E
:10019000103A28BF78C1FBD8520728BF30C148BFEA
:1001A0000B6070476E2900F02B83702900F0D78018
:1001B000662902F0E183652902F0DE83672902F0F7
:1001C000DB836129AFF3008003681B0A28BF41F07D
:1001D0008001692900F0D882642900F0D582752950
:1001E00000F0D2826F2900F0FA83782900F0A38012
:1001F000E92900F09583E42900F09283F52900F0C5
:100200008F83EF2900F0F783F82900F0A2800368BC
:10021000DB0928BF41F08001632900F0AE86732915
:1002200000F0B386E32900F0BE86F32900F0C38610
:10023000002070471FB500F00FFF040000200021D0
:1002400002F084FB401C60600020002102F068FB8B
:10025000E0601FBD10B510BD00F0D1FE1146FFF7E4
:10026000E9FF02F031FB00F0ADFF03B4FFF7F2FF4E
:1002700003BC02F004FB000009488047094800471E
:10028000FEE7FEE7FEE7FEE7FEE7FEE7FEE7FEE746
:10029000FEE7FEE704480549054A064B70470000A3
:1002A000FD21000831010008F8100020F816002098
:1002B000F8120020F8120020704700001CB50C4610
:1002C000064B7B4469460090204600F0B2FA044693
:1002D0000020694600F0C0FA20461CBD93050000CE
:1002E000F0B40D460188090502D5214C7C4402E09A
:1002F0001F4C7C440E34002100F1240608E002F07B
:100300000F071209E75D42EA03721B097754491C83
:1003100052EA0307F3D102780023120704D5702DA7
:1003200006D009B1022311342246F0BC00F0D2B944
:1003300001231034F8E770B504460D4621461068D5
:1003400000F096F9024629462046BDE87040002399
:10035000C6E7D21D22F00703D3E90023C0E70368F4
:10036000126843F0200303600823C3610023B7E74A
:100370008C2600002DE9F05F894604464FF0000A04
:10038000DFF874B1FB44C0F820A02046E16888473C
:10039000002874D0252806D0D4E901219047206A8E
:1003A000401C2062F1E700265F462046E16888474E
:1003B0002028054607DB312D05D2781910F8200CCE
:1003C00008B10643F1E7B00701D526F00406C4F8EA
:1003D0001CA00027C4F818A02A2D09D0284602F036
:1003E00047FA38B304EB8708303DC8F8185019E0D5
:1003F00059F8041B204604EB87029161E1688847A5
:10040000012F054618D1E069002820DA26F02006E1
:100410001DE0D8F8180000EB800005EB40003038F4
:10042000C8F818002046E1688847054602F020FA1F
:100430000028EED1012F0AD02E2D08D12046E168E8
:1004400088477F1C0546022F46F02006C4DBA069C2
:10045000002803DA404246F00106A061F00701D00F
:1004600026F010066C2D0BD0682D09D04C2D39D0FC
:100470006A2D35D0742D35D07A2D33D016E038E082
:10048000E1682F4620468847B842054609D16C2FBF
:1004900026D04FF48060E168064320468847054631
:1004A00004E06C2F1AD04FF4807006430DB3A5F111
:1004B0004100192802D8203546F400664A462946EC
:1004C000204626604E46FFF76DFE80B101280BD016
:1004D000F61D26F0070000F1080956E74020E4E782
:1004E0008020D8E70020D6E706F104094DE728462A
:1004F00052E7206ABDE8F09F1C26000010B5431C9F
:1005000002E010F8011B71B18107FAD14FF00132FE
:1005100002C88C1A8C4314EAC211F9D0C01A0A0618
:1005200003D0C01E10BDC01A10BD0A0401D0801E29
:1005300010BD0902FCD0401E10BD032A40F23080DD
:1005400010F0030C00F0158011F8013BBCF1020F14
:10055000624498BF11F801CB00F8013B38BF11F895
:10056000013BA2F1040298BF00F801CB38BF00F8AC
:10057000013B11F0030300F04982083AC0F0088003
:1005800051F8043B083A51F804CBA0E80810F5E70D
:10059000121D5CBF51F8043B40F8043BAFF30080F0
:1005A000D20724BF11F8013B11F801CB48BF11F865
:1005B000012B24BF00F8013B00F801CB48BF00F835
:1005C000012B70474FF000020429C0F0128010F098
:1005D000030C00F04F82CCF1040CBCF1020F18BFE9
:1005E00000F8012BA8BF20F8022BA1EB0C0100F0B2
:1005F00041BA5FEAC17C24BF00F8012B00F8012B4F
:1006000048BF00F8012B704770477047704770472C
:1006100070B5044685690068C10601D5302600E042
:100620002026C00707D070BDD4E90121304690478D
:10063000206A401C20626D1EF6D570BD70B5044660
:1006400085690078C00707D170BDD4E90121202059
:100650009047206A401C20626D1EF6D570BD096867
:100660004A0501D540B27047C905FCD500B27047B4
:1006700009684A0501D5C0B27047C905FCD580B2EA
:10068000704770B50C460546012A05D028788006CB
:1006900000D5EA69002302E0012305E05B1C9342D8
:1006A00002D2E05C0028F9D1A869E618C01AA86156
:1006B000286A184428622846FFF7AAFF04E0D5E913
:1006C000012114F8010B9047B442F8D32846FFF7F4
:1006D000B5FF70BD2DE9F0470D4699469246044698
:1006E00000F124080168880604D5E06921F01001B2
:1006F000216000E00120A84201DD471B00E0002747
:10070000A1697A1902EB0900081AA0612078C006D5
:1007100002D42046FFF77CFF002608E0D4E901213F
:100720001AF806009047206A401C761C20624E454D
:10073000F4DB2078C0060AD52046FFF769FF06E003
:10074000D4E9012130209047206A401C2062381EE5
:10075000A7F10107F4DC07E0D4E9012118F805004E
:100760009047206A401C2062281EA5F10105F3DC99
:100770002046FFF763FF2078000602D50220BDE87F
:10078000F0870120FBE700002DE9F0410646002438
:1007900010687529314616A510D0FFF760FF0028B4
:1007A00002DA404213A507E031688A0701D512A595
:1007B00002E0490704D511A5012401E0FFF758FF25
:1007C00000210A2206F1240709E0B0FBF2FCB0FB8D
:1007D000F2F302FB1C00303078541846491C002804
:1007E000F3D123462A463046BDE8F041FFF772BFF9
:1007F000000000002D0000002B0000002000000081
:1008000011680268006A530501D508700AE0D30533
:1008100001D5088006E0130603D5C217C1E900021E
:1008200000E008600120704701694A1C02610878F5
:10083000704700B58FB0CDE9013100210591054920
:100840007944CDE9031011466846FFF793FD0FB0D8
:1008500000BD0000E5FFFFFF0A6802F8010B0A6017
:10086000704700002DE9FF5F15468A460446DFF811
:10087000AC80F8440027D8E900103E46CDE90010CE
:1008800010E03AF816106A4602A800F098FB411CE6
:1008900007D02178890603D5E269391891420DD82D
:1008A0000744761C2078800602D5E069B84205DD51
:1008B000AE42E6DB3AF816000028E2D1A069C01B80
:1008C000A0612046FFF7A4FED8E90010CDE9001092
:1008D000002017E03AF818106A4602A800F06FFBF3
:1008E000B0F1FF3F81460BD000250DF1080B05E06C
:1008F000D4E901211BF8050090476D1C4D45F7D345
:1009000008F10100B0428046E4DB206A38442062EE
:100910002046FFF793FEBDE8FF9F00004221000044
:100920002DE9F0418046D21D22F007020025D2E9D0
:100930000002F52915A614D0011E72F1000106DA95
:100940000023D0EB030063EB020211A608E0D8F805
:1009500000108B0701D50FA602E0490701D50EA6AE
:1009600001251146002408F1240704E000F0A7F84F
:1009700030323A55641C50EA0102F7D12B46324618
:1009800021464046BDE8F041FFF7A4BE000000004C
:100990002D0000002B0000002000000030B40021DA
:1009A00000F1240408E002F00705D208303542EADD
:1009B0004372DB086554491C52EA0305F3D104680D
:1009C000002310A2250707D5A40600D421B1C469CD
:1009D00001230DA2641EC46130BCFFF77BBE10B5BD
:1009E000044621461068FFF743FE02462046BDE854
:1009F00010400023D2E7D21D22F00701D1E90023E5
:100A0000CCE70000000000003000000010B5203AE4
:100A1000C0F00B80B1E81850203AA0E81850B1E8B7
:100A20001850A0E81850BFF4F5AF5FEA027C24BF6D
:100A3000B1E81850A0E8185044BF18C918C0BDE864
:100A400010405FEA827C24BF51F8043B40F8043B2D
:100A500008BF7047D20728BF31F8023B48BF11F8E2
:100A6000012B28BF20F8023B48BF00F8012B70473C
:100A70004FF0000200B5134694469646203922BF37
:100A8000A0E80C50A0E80C50B1F12001BFF4F7AF82
:100A9000090728BFA0E80C5048BF0CC05DF804EB64
:100AA000890028BF40F8042B08BF704748BF20F8D2
:100AB000022B11F0804F18BF00F8012B704730B5A2
:100AC000B0F10A024FEA900E71F100034EEA817E06
:100AD000B0EB0E0061EB91014FEA101E4EEA017E71
:100AE00010EB0E0041EB11114FEA102E4EEA016E91
:100AF00010EB0E0041EB11214FEA104E4EEA014E71
:100B000010EB0E0041EB1141401841F100014FEA9A
:100B1000D00040EA41704FEAD10110EB80054FEA66
:100B2000810444EA907444EB01046D1944EB04041D
:100B3000521BA3414FF0000348BF0A3200D530BD1D
:100B4000401C41F1000130BD70472DE9FF4F0C46BC
:100B50001E464FF0FF378BB0D2E90001DDF8608010
:100B60000A908A46C1F30A5505B93D460021084658
:100B70004FF00000BAF1000F00F4400005DA00EB7E
:100B800080004FF4400101EA50004FEA9059B9F15A
:100B9000010F00DDB9460A9850EA4A000ED044F62B
:100BA0001050A5F2FF3545432F14B8F1000F1ED0A9
:100BB0007542291E1EDDC9F100021CE0B8F1010FCB
:100BC0004FF0000001D0302103E0F24305E0215452
:100BD000401CB042FBDB30460022002121540B991F
:100BE000C1F80880C1E900200FB0BDE8F08FBD1B3F
:100BF0006D1CDEE74A4600DA694206A800F070FA8A
:100C000006AB93E8070003AB83E8070050460A9958
:100C100000F026FB8DE80700A0F500501F3800907B
:100C20000398002D0ADD42F21F014A4608440023C2
:100C300003A90390684600F08FFD09E0A0F500507D
:100C40004A461F38002303A90390684600F099FD27
:100C50008DE807000004000C03D04FF0FF3041087E
:100C600000E01046B8F1000F03D0002200921546B4
:100C70001EE0751E05D4FFF722FF303262556D1E4F
:100C8000F9D5B3460122084302D000227F1C04E0BC
:100C90002078302801D100227F1E002A099784D0B5
:100CA0001DE0112D07DAFFF70AFF303262556D1C87
:100CB00050EA0102F5D1084302D00098C8B10EE015
:100CC0000021681E05E0235C625C63542254401ED0
:100CD000491C8142F7DBAB46A81B401E099000204F
:100CE00004F80B000B98099AC0F80880C0E9002BA3
:100CF0007AE711264FF0000857E72DE9F04F8846B4
:100D00000446D21D22F0070191B0D1E90001CDE9DE
:100D10000A0101F099FD02460B98C00F01D02D2069
:100D200007E02068810701D52B2002E0202101EA9D
:100D3000C000032A099001D0072A05DB034641467B
:100D4000204600F08DF90BE12078800601D5E0699E
:100D500000E00620B8F1650F814606D0B8F1660FB5
:100D600018D0B8F1670F70D131E00020B9F1110F40
:100D7000009001DB112301E009F101030AAA01A996
:100D80000CA8FFF7E2FEDDE90C70002609F1010571
:100D9000834647E001204B4600904FF000470AAAE7
:100DA00001A90CA8FFF7D1FEDDE90DB00C995D4655
:100DB000002610B909F101000D18B9EB050003D4A4
:100DC000C0F1FF3609F10105A5EB09002BE0B9F1EF
:100DD000010F01DA4FF001090020B9F1110F009065
:100DE000484601DD112300E003460AAA01A90CA828
:100DF000FFF7ABFEDDE90C704D46002683462078F8
:100E000000070AD4AB4500DA5D4601A8012D04DDD8
:100E1000411911F8011C302907D04F4502DA17F1AA
:100E2000040F04DA012082460FE06D1EEEE7002F6A
:100E300002DCED1B3E4403E0781CA84200DD7D1C73
:100E4000B81B00F1010A4FF000472078000703D4D7
:100E5000AA4501DB4FF0FF3A0021B7F1004F0DF139
:100E600043088DF8431024D002202B23002F01DAF1
:100E70007F422D230A21021EA0F1010000DC5FB198
:100E800097FBF1FC97FBF1F201FB1C7C17460CF180
:100E9000300C08F801CDEEE7A8F1010003702188BD
:100EA000090501D5452100E06521A0F1010800F800
:100EB000011C09980FA9A1EB0807FF1D00B1012033
:100EC000411901EBEA70A1693844081A401EA0617B
:100ED0002078C00602D42046FFF79AFB099828B173
:100EE000D4E901219047206A401C20622078C00686
:100EF00022D52046FFF78CFB1EE0002E04DBB34515
:100F000002DD01A8805D00E03020D4E90121904796
:100F1000206A401C2062761CAAF101005FEA000AE8
:100F20000AD100F099F8C0680168405CD4E9012159
:100F30009047206A401C2062281EA5F10105DCDCD8
:100F400007E0D4E9012118F8010B9047206A401C02
:100F50002062381EA7F10107F3DC2046FFF76EFB85
:100F6000032011B041E610B5436913B1AFF300801F
:100F700001E0FFF786FB012010BD127800F124018B
:100F80000A7000224A700122EDE711684FF0FF322B
:100F9000E9E710B5436913B1AFF3008001E0FFF753
:100FA00061FC012010BD128800F12401828400221E
:100FB000C2840122EDE711684FF0FF32E9E770B516
:100FC00016460C46054600F03FF8036893F8010109
:100FD000012806D0FF2C0FD8185D68B101202C70B5
:100FE00070BDD3F807013246214603F207130344CC
:100FF0002846BDE8704018474FF0FF3070BD754679
:1010000000F0EAF8AE4605006946534620F00700B6
:10101000854618B020B5FFF73DF9BDE820404FF0F8
:1010200000064FF000074FF000084FF0000B21F0D2
:101030000701AC46ACE8C009ACE8C009ACE8C0099F
:10104000ACE8C0098D46704710B500F005F8001DEA
:1010500010BD00BFF918000000487047B81000200C
:101060002DE9F0411F46044603260168072A01F4D2
:10107000006004DB08B116A505E016A503E008B181
:1010800015A500E015A521F010002060A069C01E84
:10109000A0610FB1401EA0612046FFF7B9FA4FB121
:1010A000D4E9012138469047206A401C2062C01CC8
:1010B000206206E0206AFAE7D4E9012115F8010B65
:1010C0009047761EF8D22046FFF7B8FABDE8F081C7
:1010D0004E414E006E616E00494E4600696E6600DC
:1010E0002DE9F047814616468AB0354878440DC848
:1010F0008DE80D0032487844801C03AC0DC884E8AC
:101100000D0041F69B300844372190FBF1F290FB33
:10111000F1F5A5F1800501FB12041B3C02D56442E8
:10112000012000E00020DFF898A080460027FA4464
:10113000AAF1BE0A0EE0E0070AD03246684607EB85
:10114000470101230AEB810100F01BFB8DE807003A
:1011500064107F1C002CEED1194F7F44AE3F19E084
:10116000E80715D007EB04100DF1180A90E80E00FF
:101170008AE80E00C068F04201D198190890324602
:10118000012306A903A800F0FCFA03AB83E80700DB
:101190006D10641C002DE3D14FF001033246694607
:1011A000B8F1000F03A802D000F0D6FA01E000F079
:1011B000E8FAC9E90001C9F808200AB0BDE8F087DB
:1011C0004C19000010B50446AFF300802046BDE87E
:1011D0001040FFF74AB80000004870479810002000
:1011E0004FF0013C50F8042B51F8043B9A4221D1B6
:1011F000A2EB0C03934313EACC1317D150F8042B42
:1012000051F8043B9A4215D1A2EB0C03934313EA25
:10121000CC130BD150F8042B51F8043B9A4209D15E
:10122000A2EB0C03934313EACC13DBD04FF0000086
:10123000704700BFD01A01BAB1FA81F101F018016C
:1012400022FA01F0CB40C1F12001DBB2C0B2C01ADA
:101250002CFA01F3D11A914311EAC311E6D1704778
:101260005FEA400C08BF91F0000F4FEA8C234FEA71
:10127000C12243EA51514FEA1C5018BF00F5F0401B
:101280004FEA300018BF41F000415FEA6C5C00F0AB
:101290002980BCF1FF3F08BF40F080407047130C2D
:1012A00006BF12044FF0100C4FF0000C130E04BFD9
:1012B00012020CF1080C130F04BF12010CF1040C04
:1012C000930F04BF92000CF1020CD30F04BF520025
:1012D0000CF1010C11464FF00002A0F11F00A0EB31
:1012E0000C00704711F0004F08BF704731F000410B
:1012F0003FF4D5AF0B0C06BF09044FF0100C4FF0B4
:10130000000C0B0E04BF09020CF1080C0B0F04BFFC
:1013100009010CF1040C8B0F04BF89000CF1020CC5
:10132000CB0F04BF49000CF1010CCCF12003A0EB62
:101330000C0022FA03F302FA0CF241EA030100F175
:101340000100704720F07F4C80EA030023F07F47C4
:10135000ACEB070303F57C5300F0004003F1FF03FF
:101360002DE980494FEA154B09B44FEA144325EAA9
:101370000B4E24EA03480FF2042606EB1327490814
:101380003E785FEA320203FB0667C7F5000707FBFA
:1013900006F64FEA54374FEAD64606F1020607FB37
:1013A000066CCCF1005C4FEA1C472CEA074C07FBAB
:1013B00006F40CFB06F504EB15464FEA961634BF0F
:1013C00000204FF000404FEAD13706FB07FC4FEA00
:1013D0001C4C0CFB0BF7D21B03FB0CF761EB07015A
:1013E0000CFB0EF7B0EB074072EB17420CFB08F753
:1013F00034BFA2EB0742B2EB074261EB17414FEA61
:101400000C444FEA910706FB07FC4FEA1C4C0CFB0F
:101410000BF7B0EBC74072EB573203FB0CF734BF4E
:10142000A2EBC742B2EBC74261EB57310CFB0EF7A0
:10143000B0EBC70072EB57720CFB08F734BFA2EB9E
:10144000C702B2EBC70261EB5771039F4FEA81619C
:1014500041EA921104EBCC044FEAD1374FEA8262A1
:1014600006FB07FC42EA90124FEA80604FEA1C4CF0
:101470000CFB0BF7D21B03FB0CF761EB07010CFB1A
:101480000EF7B0EB074072EB17420CFB08F734BFC6
:10149000A2EB0742B2EB074261EB17414FEA8C55D2
:1014A0004FEA910704EB9C2406FB07FC4FEA1C4C17
:1014B0000CFB0BF7B0EBC74072EB573203FB0CF79A
:1014C00034BFA2EBC742B2EBC74261EB57310CFB12
:1014D0000EF7B0EBC70072EB57720CFB08F734BF86
:1014E000A2EBC702B2EBC70261EB577115EB4C25BB
:1014F0004FEA816141EA92114FEA82624FEAD137A5
:1015000042EA901206FB07FC44F100044FEA8060B7
:101510004FEA1C4C0CFB0BF7D21B03FB0CF761EBE7
:1015200007010CFB0EF7B0EB074072EB17420CFB08
:1015300008F734BFA2EB0742B2EB074261EB174159
:1015400015EB1C154FEA813141EA92414FEA823294
:1015500042EA90424FEA80304FEA0C7644F10004B0
:1015600048EA03434EEA0B484FF0000EB2EB080C7A
:1015700071EB030724BF624639464EEB0E0E4FF067
:10158000000B0018524149414BEB0B0BB2EB080C1E
:1015900071EB03077BF1000B24BF624639464EEB2B
:1015A0000E0E4FF0000B0018524149414BEB0B0B54
:1015B000B2EB080C71EB03077BF1000B24BF624612
:1015C00039464EEB0E0E51EA020718BF46F00106EF
:1015D00016EB0E7655F1000254F1000103D5BDE87B
:1015E0008901BDE80088BDE88901BDE80048B61959
:1015F000524141EB0101A3F10103704780807F7EDE
:101600007D7C7B7A79787776767574737271717078
:101610006F6E6E6D6C6C6B6A6A696868676666652A
:101620006464636362616160605F5F5E5E5D5D5CB8
:101630005C5B5B5A5A595958585757565655555529
:101640005454535352525251515050504F4F4F4E89
:101650004E4D4D4D4C4C4C4B4B4B4A4A4A494949D7
:101660004848484747474746464645454544444419
:10167000444343434342424242414141002B9C4642
:1016800030D477002BD01CB54FEA370703B44FF0A6
:1016900010004FF01001BAF1000F06D0BCF1000F9E
:1016A000DCBF40F0080040F008014FF000000FBC24
:1016B000BDE810400BF1010BBBF1010F08BF5FEA61
:1016C000170722BF12F1010211F101014FF0004191
:1016D00043F1000300F0004043EA00007047F9D3F3
:1016E0005708D0E746EA064613F1400F4FEA164680
:1016F0001FDD13F1200FDFBF16430A460021203300
:101700005B42BED0C3F1200746EA064602FA07F75D
:101710004FEA164646EA0706C3F1200722FA03F20B
:1017200001FA07F721FA03F14FF0000342EA07023A
:10173000A7E746EA020646EA06464FEA164646EAA2
:101740000106BCBF46EA0646360C4FF000034FF0D8
:1017500000024FF0000194E72DE9804C9A46934631
:1017600070B491E8380007C831EA400C48BF34EA49
:10177000430C03D5FFF7E6FDFFF780FFF0BCBDE8A3
:10178000008C2DE9804C9A46934670B491E838005D
:1017900007C810F0804F08BF13F0804F03D100F04E
:1017A00005F8FFF76BFFF0BCBDE8008C20F07F4729
:1017B00080EA030023F07F4C07EB0C03A3F57C5376
:1017C00000F00040A3F1FE0392F0000F00F0B380A0
:1017D00095F0000F00F077802DE901494FEA1140A4
:1017E0004FEA144621EA004800FB06FC24EA0647BB
:1017F00008FB06F607FB08F800FB07F718EB06489E
:101800004CEB164C4FEA124B18EB07484FEA1546C3
:101810004CEB174022EA0B4E0BFB06FC25EA064771
:101820000EFB06F607FB0EFE0BFB07F71EEB064E44
:101830004CEB164C4FF000061EEB074E4CEB174BD3
:1018400018EB0B0840F1000018EB0E0B58EB0008EA
:1018500040F100008F1A4FF000013CBFC943661BE6
:1018600014BFB5EB040C00213CBFC943F61B4FEA83
:1018700017444EEA8E0E27EA04454FEA1C4704FB44
:1018800007622CEA074C05FB07F70CFB05F604FB87
:101890000CFC16EB074642EB174216EB0C4642EBEC
:1018A0001C421BEB060658EB0202414146EA9E062B
:1018B00001D5BDE80189B619524141EB0101A3F1FF
:1018C0000103BDE801894FEA14454FEA114724EAB4
:1018D000054621EA074C05FB07F406FB07F70CFB5E
:1018E00006F105FB0CFC11EB074144EB17444FEAF2
:1018F000124711EB0C4144EB1C4422EA074C05FB58
:1019000007F206FB07F70CFB06F605FB0CFC16EBD3
:10191000074642EB174216EB0C4642EB1C456A1891
:1019200054F1000148BF7047B619524141EB010123
:10193000A3F10103704795F0000F37D04FEA114231
:101940004FEA144721EA024624EA074C02FB07F15A
:1019500006FB07F70CFB06F402FB0CFC14EB074438
:1019600041EB17414FEA154714EB0C4441EB1C4186
:1019700025EA074C02FB07F506FB07F70CFB06F60A
:1019800002FB0CFC16EB074645EB174516EB0C4625
:1019900045EB1C42121951F1000148BF7047B619BE
:1019A000524141EB0101A3F1010370474FEA144595
:1019B0004FEA114724EA054621EA074C05FB07F1E7
:1019C00006FB07F70CFB06F24FF0000605FB0CFCCC
:1019D00012EB074241EB174112EB0C4251EB1C4159
:1019E00048BF7047921841EB0101A3F10103704712
:1019F00010B500F077F910BD00BFFEE721B1026815
:101A000042F00102026004E002684FF6FE731A40E1
:101A10000260704701684FF6FE72114001600021BC
:101A2000016041608160C1604B49884208D14A49E8
:101A30000839496841F00F01474A083A51608AE085
:101A400045491431884208D143490839496841F071
:101A5000F001414A083A51607DE03F49283188420F
:101A600008D13D490839496841F470613A4A083A59
:101A7000516070E038493C31884208D13649083914
:101A8000496841F47041344A083A516063E0324990
:101A90005031884208D130490839496841F47021F1
:101AA0002D4A083A516056E02B496431884208D1EA
:101AB00029490839496841F47001274A083A5160B8
:101AC00049E025497831884208D1234908394968D5
:101AD00041F07061204A083A51603CE01F49884259
:101AE00006D1011F096841F00F01021F116032E0A9
:101AF0001A491431884208D11849091F096841F070
:101B0000F001164A121F116025E01449283188425D
:101B100008D11249091F096841F470610F4A121F68
:101B2000116018E00D493C31884208D10B49091F6A
:101B3000096841F47041094A121F11600BE007491E
:101B40005031884207D10549091F096841F47021C5
:101B5000024A121F11607047080002400804024048
:101B60000146486880B2704710B50022026847F607
:101B7000F0739A430C6A8B6823430C6923434C69C6
:101B800023438C692343CC6923434C6A23438C6AE7
:101B900023431A430260CB6843600B6883604B6841
:101BA000C36010BD4160704770472DE9F0410246A7
:101BB00000250026002000230024002791F803C000
:101BC0000CF00F0591F803C00CF0100CBCF1000FE5
:101BD00003D091F802C04CEA050591F800C0BCF1B1
:101BE000000F31D0146800202BE04FF0010C0CFAEC
:101BF00000F3B1F800C00CEA03069E4220D1830036
:101C00004FF00F0C0CFA03F7BC4305FA03FC4CEA47
:101C1000040491F803C0BCF1280F06D14FF0010C69
:101C20000CFA00FCC2F814C00AE091F803C0BCF141
:101C3000480F05D14FF0010C0CFA00FCC2F810C09F
:101C4000401C0828D1D31460B1F800C0BCF1FF0FCC
:101C500034DD546800202EE000F1080C4FF001083C
:101C600008FA0CF3B1F800C00CEA03069E4221D139
:101C700083004FF00F0C0CFA03F7BC4305FA03FC8A
:101C80004CEA040491F803C0BCF1280F05D100F11F
:101C9000080C08FA0CF8C2F8148091F803C0BCF1E3
:101CA000480F07D100F1080C4FF0010808FA0CF8B2
:101CB000C2F81080401C0828CED35460BDE8F081E3
:101CC0000161704700BFFEE710B500F043F800F077
:101CD00023F84FF4E13000F0D9FCFFF789FE00F063
:101CE00063FD10BD08B50121082000F0C1F8C02037
:101CF000ADF8000010208DF8030003208DF80200DD
:101D000069460448FFF751FFC0210248FFF7D8FF9A
:101D100008BD0000000C014008B50121442000F07E
:101D2000A7F81820ADF8000048208DF80300694698
:101D30000648FFF73AFF0120ADF8000028208DF893
:101D4000030069460248FFF730FF08BD0018014054
:101D50000008014008B50121482000F089F8202042
:101D6000ADF8000010208DF8030003208DF802006C
:101D700069460948FFF719FF20210748FFF7A0FF30
:101D80002020ADF8000069460448FFF70EFF20212F
:101D90000248FFF795FF08BD000C01400018014004
:101DA00000BFFEE77047000070B5002100230F223E
:101DB000C47804B3154C246804F4E064C4F5E0640A
:101DC000210AC1F10403CA40447804FA03F184787B
:101DD0001440214309010E4C0678A155047804F003
:101DE0001F050124AC4005786D11AD0005F1E0251B
:101DF000C5F8004109E0047804F01F050124AC4057
:101E0000044D0678761145F8264070BD0CED00E0D3
:101E100000E400E080E100E002490143024A116071
:101E2000704700000000FA050CED00E0704700006C
:101E300029B1064A52690243044B5A6104E0034A3D
:101E400052698243014B5A61704700000010024002
:101E500029B1064AD2690243044BDA6104E0034A1D
:101E6000D2698243014BDA617047000000100240E2
:101E700029B1064A92690243044B9A6104E0034A7D
:101E800092698243014B9A61704700000010024042
:101E900030B500210022002400232D4D6D6805F08F
:101EA0000C0121B1042905D0082923D105E0294DD1
:101EB000056022E0274D05601FE0254D6D6805F4A3
:101EC0007012234D6D6805F48034022505EB9242B3
:101ED0001CB9214D554305600BE01D4D6D6805F49F
:101EE00000351DB11C4D5543056002E0194D5543A9
:101EF000056002E0174D056000BF00BF144D6D681E
:101F000005F0F0010909154D6B5C0568DD40456081
:101F10000F4D6D6805F4E061090A104D6B5C456872
:101F2000DD4085600A4D6D6805F46051C90A0B4DAE
:101F30006B5C4568DD40C560054D6D6805F440414A
:101F4000890B074D6B5CC568B5FBF3F5056130BDCA
:101F50000010024000127A0000093D002400002019
:101F60003400002000B587B001210820FFF780FF72
:101F700001218803FFF76CFF4FF46040ADF81800B3
:101F800018208DF81B0003208DF81A0006A91848A8
:101F9000FFF70BFE4FF460411548FFF791FE00205C
:101FA000ADF804004FF48270ADF806000020ADF8E3
:101FB00008000220ADF80A000120ADF80C00400234
:101FC000ADF80E003820ADF810000020ADF812007A
:101FD0000720ADF8140001A9064800F065F80121BA
:101FE000044800F047F8FF2000F006F807B000BDF5
:101FF000000C01400038004070B50546002405E0A3
:10200000601CC4B2C82C01DD002070BD02210E4846
:1020100000F03CF80028F3D029460B4800F042F8C5
:10202000002405E0601CC4B2C82C01DD0020ECE7F0
:102030000121054800F02AF80028F3D0024800F0FA
:102040002EF8C0B2E1E700000038004010B50446A9
:10205000074800884FF6C7710840054908800846C0
:102060000088204308800121014800F003F810BDDA
:102070000038004021B1028842F04002028004E0B2
:1020800002884FF6BF731A40028070470246002054
:1020900013890B400BB1012000E00020704701467E
:1020A000888970478181704710B50022028802F448
:1020B00041520B884C8823438C882343CC8823438C
:1020C0000C8923434C8923438C892343CC892343A4
:1020D0001A430280838B4FF2FF74234083830B8A61
:1020E000038210BD704710B500F002F810BD00006B
:1020F0000CB50020019000903348006840F4803017
:102100003149086000BF3048006800F4003000909A
:102110000198401C0190009818B90198B0F5A06F83
:10212000F1D12948006800F4003010B1012000907E
:1021300001E0002000900098012843D12348006866
:1021400040F01000214908600846006820F00300B4
:1021500008600846006840F0020008601A484068BD
:10216000194948600846406848600846406840F49D
:10217000806048600846406820F47C10486008464B
:10218000406840F4E81048600846006840F08070FD
:10219000086000BF0C48006800F000700028F9D00B
:1021A0000948406820F00300074948600846406835
:1021B00040F00200486000BF0348406800F00C0097
:1021C0000828F9D10CBD0000001002400020024098
:1021D000042808D14FF0E021096941F004014FF0D3
:1021E000E022116107E04FF0E021096921F00401CC
:1021F0004FF0E022116170477047000010B513489E
:10220000006840F001001149086008464068104924
:1022100008400E494860084600680E4908400B49CE
:1022200008600846006820F480200860084640687E
:1022300020F4FE0048604FF41F008860FFF753FF52
:102240004FF000600449086010BD0000001002401B
:102250000000FFF8FFFFF6FE08ED00E010B540F2C9
:1022600024413A4800F0B1F800285BD03748008894
:10227000C4B23648001D0088C4B201203449087039
:102280003448FFF76DFCC0F1010033490870334852
:1022900000880978084431490880084600880028E9
:1022A0000CDD08460088B0F5006F07DC08460088A2
:1022B000401E2B4908442949496D48602748406D14
:1022C0000830264948650846406DC96D884203D1EB
:1022D0002248001D011F486520480088C0F50060A5
:1022E000FF2807DD1D4800881D4908441B49496D2A
:1022F000086006E01A481949496D0860002017492E
:10230000088000211348FFF779FB40F201101149C2
:102310005839C8651148406D0068486601210D486C
:10232000FFF76CFB40F22661084800F04EF860B100
:1023300040F22661054800F017F8002105481438DE
:10234000FFF75CFB01200749087010BD0038014011
:102350002000002058000240210000203808002002
:10236000380000202200002010B50022002340F693
:102370006A14A14200D100BF0A1201249440A3B202
:10238000DC43048010BD21B1828942F40052828175
:1023900004E082894DF6FF731A40828170471AB1BA
:1023A000838A0B43838202E0838A8B438382704754
:1023B00002460020B1F5007F00D100BF13880B401A
:1023C0000BB1012000E00020704770B502460024E8
:1023D00000230025002040F66A16B14200D100BF5C
:1023E000C1F3421501F01F03012606FA03F3012D84
:1023F00002D19689334006E0022D02D1168A33407D
:1024000001E0968A33400C12012606FA04F416887D
:10241000344013B10CB1012000E0002070BDF0B5D4
:102420000346002400260025002040F66A17B94222
:1024300000D100BF1846C1F3421401F01F06012766
:1024400007FA06F5012C01D10C3004E0022C01D171
:10245000103000E014301AB107682F43076002E023
:102460000768AF430760F0BD2DE9F04786B0054629
:102470000E460024A24600BFA1460027B08900B145
:1024800000BF2F462C8A4CF6FF700440F0880443AE
:102490002C82AC894EF6F3100440B0883189084391
:1024A000718908430443AC81AC8A4FF6FF40044075
:1024B000B0890443AC8201A8FFF7EAFC1F488742B9
:1024C00002D1DDF810A001E0DDF80CA0A88900F42D
:1024D000004040B10AEBCA0000EB0A103168490025
:1024E000B0FBF1F807E00AEBCA0000EB0A10316814
:1024F0008900B0FBF1F86420B8FBF0F0040120097A
:10250000642101FB1089A88900F4004040B1322009
:1025100000EBC900B0FBF1F000F00700044308E055
:10252000322000EB09106421B0FBF1F000F00F0045
:1025300004432C8106B0BDE8F0870000003801405C
:10254000C1F308028280704700BFFEE710B500218A
:102550000648FFF753FA40F201110448FFF722FB47
:1025600001210248FFF74AFA10BD0000580002405E
:1025700000B58BB01D48FFF74DFA1C481430FFF72B
:1025800049FA01210846FFF753FC40F2011003907D
:10259000002002900A9016480190002007908020A9
:1025A00005900020089013480090002006900490A9
:1025B0004FF40050099069460C481430FFF7D4FAE4
:1025C00000200390102002900B48019069460748B4
:1025D000FFF7CAFA012105481430FFF70FFA01216D
:1025E0000248FFF70BFA0BB000BD000044000240A8
:1025F00038000020043801409808002070B50446D7
:102600000D4605B104B970BDB5F5006F02D94FF4A0
:10261000006000E02846C6B200BF0C48FFF7A0FAF1
:102620000028FAD1324621460948FDF786FF0021ED
:102630000648FFF7E3F931460448FFF7B3FA0121F2
:102640000248FFF7DBF900BFDDE70000440002406D
:102650009808002010B50A48007801280ED1002003
:1026600007490870FFF772FF064801780648FFF730
:10267000C5FF4FF400610448FDF7A4FF10BD000042
:1026800020000020210000203800002010B586B076
:10269000044600F033F9012144F20400FFF7E8FB9F
:1026A0004FF40070ADF8140003208DF816001820C8
:1026B0008DF8170005A92348FFF777FA4FF48060DB
:1026C000ADF8140004208DF8170005A91D48FFF788
:1026D0006CFA25208DF8000003208DF801008DF89C
:1026E000020001208DF803006846FFF75DFB0194AE
:1026F0000020ADF80800ADF80A00ADF80C00ADF808
:1027000010000C20ADF80E0001A90F48FFF7ACFE39
:1027100001210D48FFF737FE012240F226610A48E9
:10272000FFF77DFE012240F224410748FFF777FEC4
:10273000FFF71EFF0122C0210348FFF730FE06B05D
:1027400010BD000000080140003801400FB438B54A
:1027500005A800901248009A0499FDF7AFFD0020EB
:10276000009000240DE000BF80210E48FFF720FEFE
:102770000128F9D10A48015D0A48FFF7E1FE601C13
:1027800084B20748FDF7BAFEA042ECD800BF802112
:102790000448FFF70DFE0128F9D138BC5DF814FBA1
:1027A000980800200038014008B501210820FFF7F3
:1027B0005FFB4FF48050ADF8000010208DF803004F
:1027C00003208DF8020069460A48FFF7EEF94FF43E
:1027D00080510848FFF774FA012007490860FFF7A5
:1027E000C1FB0020FFF732FC00F00AF80349088023
:1027F00008BD0000000C0140B081214214000020FF
:1028000010B5002400200E4908609020FFF7F4FB6B
:102810000020FFF7F1FB0020FFF7EEFB0020FFF7A1
:10282000EBFBFF20FFF7E8FB44EA0024FF20FFF763
:10283000E3FB044301200349C1F8B001204610BD69
:10284000B081214200802142490050EAC12018BFD6
:1028500004204A0D18BF40F0010040F2FF72B2EBB5
:10286000515F08BF40F00200012808BF05207047F3
:1028700030380A2801D2012070470020704700BF7D
:102880007047000010B56FF00400FFF7A1FC0A4884
:1028900000680A49B0FBF1F0094908700846007861
:1028A00000EB4001C1EBC0104FF6FF7101EAC00020
:1028B0000449088010BD00000000002000127A00CA
:1028C0001600002018000020FFF7DCFF4FF4A06086
:1028D000FFF7A2FAFFF7F8F903A0FFF737FF01E0CF
:1028E000FFF7B8FEFCE70000415050204C4F414438
:1028F000202054657374210D0A0000000648011F52
:10290000486588654830C8650448496D08600020FE
:102910000149091F088070473C080020380000204A
:1029200010B500290AD00878002807D00548784457
:10293000FEF756FC002801D0002010BD0248784464
:1029400010BD0000460100003E01000010B5002946
:102950000AD00878002807D005487844FEF740FCE4
:10296000002801D0002010BD0248784410BD0000AE
:10297000360100002E010000FEF7BFB930313233BE
:1029800034353637383941424344454640305800A3
:1029900030313233343536373839616263646566D5
:1029A0004030780004000008000000000000000231
:1029B0000001000010000000000000000000000006
:1029C00002400000000000A00000000005400000E0
:1029D000000000C8000000000C4000000000409C07
:1029E00000000000194000000020BCBE00000000F4
:1029F00034400000BFC91B8E00000004B540000039
:102A0000504BCFD06607E2CF010000006C410000C0
:102A10003E8251AADFEEA73401000000D942000037
:102A2000DCB5A0E23A301F97FFFFFFFFB44500007E
:102A3000FD25A0C8E9A3C14FFFFFFFFFFF3F000036
:102A40000000008000000000FF3F00000000008048
:102A500000000000A02B000800000020380000004B
:102A60006C010008D82B000838000020C0160000B8
:102A7000880100081C00000043000000F8FFFFFF71
:102A80000C0000000E0000000F0000002E000000EF
:102A90001001000043000000F8FFFFFF004040402D
:102AA0004040404040404141414141404040404021
:102AB00040404040404040404040404040050202CD
:102AC000020202020202020202020202022020208C
:102AD00020202020202020020202020202029090E8
:102AE00090909090101010101010101010101010E6
:102AF000101010101010101002020202020288883A
:102B00008888888808080808080808080808080845
:102B1000080808080808080802020202400000002D
:102B200000000000000000000000000000000000A5
:102B30000000000000000000000000000000000095
:102B40000000000000000000000000000000000085
:102B50000000000000000000000000000000000075
:102B60000000000000000000000000000000000065
:102B70000000000000000000000000000000000055
:102B80000000000000000000000000000000000045
:102B90000000000000000000000000000000000035
:102BA00000A24A040000000000000000010203042B
:102BB0000607080917EF00000000000000000000F1
:102BC00000000000000000000102030401020304F1
:082BD0000607080902040608CB
:040000050800027974
:00000001FF
